:020000040800F2
:10000000680E0120C1010008F11B0008BD160008A0
:10001000C91A000835060008F95900080000000058
:10002000000000000000000000000000E956000889
:100030000509000800000000D10300082935000868
:10004000DB010008DB010008DB010008DB01000820
:10005000DB010008DB010008DB010008DB01000810
:10006000DB010008DB010008DB010008DB01000800
:10007000DB010008DB010008DB010008DB010008F0
:10008000DB010008DB010008DB010008DB010008E0
:10009000DB010008DB010008DB010008DB010008D0
:1000A000DB010008DB010008DB010008DB010008C0
:1000B000DB010008DB010008DB010008DB010008B0
:1000C000DB010008DB010008DB010008DB010008A0
:1000D000DB010008DB010008DB010008DB01000890
:1000E000DB010008DB010008DB010008DB01000880
:1000F000DB010008DB010008DB010008DB01000870
:10010000DB010008DB010008DB010008DB0100085F
:10011000DB010008DB010008DB010008DB0100084F
:10012000DB010008DB010008DB010008DB0100083F
:10013000DB010008DB010008DB010008DB0100082F
:10014000DB010008DB010008DB010008DB0100081F
:10015000DB010008DB010008DB010008DB0100080F
:10016000DB010008DB010008DB010008DB010008FF
:10017000DB010008DB010008DB010008DB010008EF
:10018000DB010008DB010008DB010008DB010008DF
:10019000DB010008DB010008DB010008DB010008CF
:1001A000DB010008DB010008DB010008DFF80CD0F0
:1001B00000F088F800480047B1970008680E012059
:1001C0000648804706480047FEE7FEE7FEE7FEE7F1
:1001D000FEE7FEE7FEE7FEE7FEE7FEE77D580008E4
:1001E000AD01000872B6704762B67047EFF3108039
:1001F00072B6704780F31088704730BF704720BFD9
:100200007047B0FA80F0704790FAA0F0B0FA80F032
:10021000704790FAA0F0704740EA01039B0703D0B3
:1002200009E008C9121F08C0042AFAD203E011F835
:10023000013B00F8013B521EF9D27047D2B201E0F7
:1002400000F8012B491EFBD270470022F6E710B5DB
:1002500013460A4604461946FFF7F0FF204610BD34
:1002600010B5002200E0521C835C8C5CA34201D1DB
:10027000002BF8D1D8B2E1B2401A10BD30B5044617
:100280000020034600E05B1C934203D2E05CCD5C9F
:10029000401BF8D030BD30B50B460146002020226F
:1002A000012409E021FA02F59D4205D303FA02F583
:1002B000491B04FA02F52844151EA2F10102F1DCE3
:1002C00030BD0000064C074D06E0E06840F0010339
:1002D00094E8070098471034AC42F6D3FFF76AFF62
:1002E00004FE000824FE000870B58C1810F8015BAD
:1002F00015F0070301D110F8013B2A1106D110F8BF
:10030000012B03E010F8016B01F8016B5B1EF9D1C2
:100310002B0705D40023521E0DD401F8013BFAE748
:1003200010F8013BCB1A921C03E013F8015B01F8B3
:10033000015B521EF9D5A142D8D3002070BD000048
:1003400072B64EF62250CEF2000040F2FF01C0F22B
:10035000000101704FF0000080F3098802F09CFF5B
:1003600040F21410C2F20000016881F3088840F2E4
:100370009200C2F2000040F29301C2F200010A783A
:10038000027040F20C15C2F2000540F21011C2F2E8
:1003900000010A682A60106880F30988EFF314806E
:1003A00040F0020080F31488BFF36F8FBDE8F00FB8
:1003B0000FBCBDE8005006BC62B6084718484FF0B5
:1003C00080510160704716484FF0805101607047BE
:1003D00072B6EFF3098020E9F00F40F20C15C2F27B
:1003E00000052E683060744602F056FF40F292001D
:1003F000C2F2000040F29301C2F200010A780270DA
:1004000040F21011C2F200010A682A6044F0F40EB2
:100410001068B0E8F00F80F3098862B670470000FA
:1004200004ED00E07047000000B58BB00AA803217E
:1004300000220592CDE90621089011464FF4007282
:100440000848D0F8CC00074BCDE90130CDE90321B5
:1004500003200023044A05A100900A4802F0B8FBDB
:100460000BB000BD4C0B0020890400084B65726E78
:10047000656C204F626A65637473205461736B20EE
:1004800030000000840A00200EB50EE00748006826
:1004900080F480500549086002A800210B46012223
:1004A000CDE90010084602F085FFEFE7141C02407A
:1004B0008AB000F071F800F0BFF809A802F006FB5E
:1004C00000F028F918A005F099FAFFF7ABFF20A07B
:1004D00005F094FAFFF7A8FF01F074FA09A80321C8
:1004E00000220592CDE90621089011464FF40072D2
:1004F0001F48D0F8CC001E4BCDE90130CDE90321D7
:1005000003201C4B1C4A1DA100901E4802F060FBFA
:1005100008E009A800210B460122CDE90010084699
:1005200002F048FFF5E700004372656174696E6789
:10053000204170706C69636174696F6E206B6572C5
:100540006E656C206F626A656374730A0D0000004B
:100550004372656174696E67204170706C69636194
:1005600074696F6E205461736B730A0D0000000094
:1005700014140020141C00207D1700084448435028
:10058000000000004C13002070471FB5684605F0BE
:1005900037F8019804B010BD10B54FF4A06001F019
:1005A00029FB01F0B3F801F097F800F0ADF905A0D0
:1005B00005F024FA00F030F800F0F6F909A005F093
:1005C0001DFA10BDBBF9D3DA75434F532D49494984
:1005D000B5C44C774950CDF8C2E7CDA8D0C5B2E23A
:1005E000CAD40A004C414E38373230412042535071
:1005F00020494E495420414E4420434F4D464947DF
:1006000055524520535543434553530A00000000BB
:1006100010B5FFF7E7FD10BD70B5FFF7B6FF044654
:1006200003480068B4FBF0F5284602F09DFF70BD5A
:100630002CFA000800BFFEE710B500F033F900F017
:1006400003F800F0F3F810BD70B50026002018493B
:100650000880184908801849086018490860184936
:1006600008601849086018490860002400BFFFF7B7
:10067000BDFD064600BF00250BE0002010490860C4
:1006800000F074F800F08CF80D4800680444681C11
:1006900085B2002DF1D00C480460002008490860A4
:1006A0000849086000BF3046FFF7A4FD00BF70BDD9
:1006B000480000204A0000204C000020500000208C
:1006C000580000205C00002054000020014608462D
:1006D000044A1268904203D9024A1268801A00E064
:1006E000002070475400002070B5002500BFFFF7C0
:1006F0007DFD054600BF0648046800BF2846FFF799
:1007000079FD00BF2046FFF7E1FF0646304670BD89
:100710005800002070B50025FFF7E6FF044600BF33
:10072000FFF764FD054600BF00200449086000BFD4
:100730002846FFF75FFD00BF204670BD580000202F
:1007400070B5002500BFFFF751FD054600BF064804
:10075000046800BF2846FFF74DFD00BF2046FFF7A5
:10076000B5FF0646304670BD5C00002010B5094854
:100770000088401C074908800748008818B900F025
:10078000BBF80649086004480088401C02490880FC
:1007900010BD0000480000204A0000204C0000204E
:1007A00010B50F480088401E0D4908800846008893
:1007B000A0B900F0A1F80B490860084600680A4992
:1007C0000968441A09480068A04201D20748046039
:1007D00007480068A04201D20548046010BD00002F
:1007E0004A000020500000204C000020580000204B
:1007F0005C00002010B5002400BF00BFFFF7F6FC2E
:10080000044600BFFFF7B2FF00BF1021064801F009
:100810005DF900BFFFF7C4FF00BF2046FFF7EAFC09
:1008200000BF00BF10BD0000B44D002010B5FFF7A1
:10083000E1FF10BD2DE9F04105460C46002714B933
:1008400000BF00F02DF81DB90A202080BDE8F0811E
:100850001021284605F003F80646102E19D200BFD5
:1008600000BFFFF7C3FC074600BFFFF77FFF00BFD5
:1008700010222946094804F0CFFF00BFFFF790FF80
:1008800000BF3846FFF7B6FC00BF00BF0020208045
:1008900002E04FF47A70208000BFD7E7B44D00200B
:1008A00000BFFEE710B500200249086000F00AF81A
:1008B00010BD00004400002001490860704700009E
:1008C0004400002010B5FFF760FE044608480068A9
:1008D00040F08070064908600020064948600846DC
:1008E000006840F0010008602046FFF7E5FF10BDFA
:1008F000FCED00E0001000E001494868704700008E
:10090000001000E07047000000B587B001210846E4
:1009100004F046FE0121102004F062FE07220A21A5
:100920001F4800F0A3FE072209211D4800F09EFE8B
:1009300000208DF81A0001208DF81B0002208DF890
:1009400018000002059002208DF8190005A914482E
:1009500000F044FE02208DF818004002059005A921
:100960000F4800F03BFE4FF4E13001900020ADF85D
:100970000800ADF80A00ADF80C00ADF810000C202E
:10098000ADF80E0001A9074804F0C8FF0121054891
:1009900004F0ABFF4021034804F09EFF07B000BD08
:1009A000000002400010014010B500F0C3F800F054
:1009B000B1FB0121002000F0A3FC00F0040028B1ED
:1009C0000348006840F010000149086010BD0000B5
:1009D0003C00002030B10749896941F00201054A15
:1009E000916105E00349896921F00201014A9161A1
:1009F000704700000090024070B50C46134600217D
:100A0000124D286000BF18E000EB41124FF0004586
:100A1000156044F2F4555560C1EBC11505EB450571
:100A200004EB850595605D1E8D4204D900EB4115F0
:100A30002035D56000E0D060491C9942E4D3044DD4
:100A4000E860044D044E356070BD000030000020A9
:100A500000900240EC4C00203400002021B142689C
:100A600022F00042426003E0426842F000424260ED
:100A70007047000030B10749896941F40051054AC7
:100A8000916105E00349896921F40051014A9161AE
:100A9000704700000090024030B50C46134600211C
:100AA0000F4D286000BF15E000EB41124FF4801598
:100AB0001560C1EBC11505EB450504EB8505956097
:100AC0005D1E8D4204D900EB41152035D56000E054
:100AD000D060491C9942E7D3024D286130BD000027
:100AE0002C0000200090024002680A430260704718
:100AF00010B50121480604F063FD00214FF000709D
:100B000004F05EFD10BD000008B50020009008480C
:100B1000806940F480100649886108468069009029
:100B200042F2107005F084F801490098886108BD10
:100B3000009002401CB5012140F2471004F030FD46
:100B40000121880304F04CFD012004F0CFFD0220B8
:100B5000009003208DF8050001208DF8040000208E
:100B60008DF806008DF807006946424800F036FD12
:100B70000221404800F09DFD4CF2503005F058F83D
:100B800002213C4800F097FD4CF2503005F050F83F
:100B90000420009003208DF8050002208DF8040049
:100BA00000208DF806008DF807006946324800F0F5
:100BB00015FD0B220221304800F058FD0220009064
:100BC00069462E4800F00AFD0B2201212B4800F057
:100BD0004DFD022000906946274800F0FFFC0B22E3
:100BE0000121254800F042FD8020009069462248FE
:100BF00000F0F4FC0B2207211F4800F037FD102005
:100C0000009069461D4800F0E9FC0B2204211B48B6
:100C100000F02CFD202000906946184800F0DEFC12
:100C20000B220521154800F021FD4FF400600090D3
:100C30006946134800F0D2FC0B221146104800F020
:100C400015FD4FF40050009069460E4800F0C6FCB8
:100C50000B220D210B4800F009FD4FF4804000905D
:100C60006946084800F0BAFC0B220E21054800F046
:100C7000FDFC1CBD002002400000024000080240B4
:100C8000000402400018024000200449096801F0F5
:100C9000010109B1012000E00020704700900240EE
:100CA0000FB50021019102910391009170E000992C
:100CB000491C00913E490968096801F40071A1B11D
:100CC0003B490968096801F4807171B938490968BC
:100CD000384A126811600121364A1268916034491D
:100CE0000968C968324A116052E0314909680968E7
:100CF00001F4807191B92E490968096801F4007105
:100D000061B92C4909688968491C2A4A12689160AE
:100D100027490968C968264A116039E024490968E9
:100D2000244A12685160234909688968491C214A8C
:100D3000126891601F4909688968012904D11C491A
:100D400009681C4A12681160194909680968C1F3E9
:100D50000D41091F0191174909688968012905D9C1
:100D60001449096809688968029103E01049096813
:100D7000896802910F490968096803910C4909685B
:100D8000C9680B4A116001A90EC980E80E000FBDA9
:100D900007490968096801F0004111B9009904295F
:100DA00085D301A90EC980E80E0000BFEFE700005F
:100DB00030000020340000202DE9F04188B00446C6
:100DC0000F464FF00008002500200790B84E029013
:100DD00001200190B748056925F01C0503A804F01F
:100DE0000FFC049EB448864205D3B448864202D222
:100DF00045F008051AE0B148864205D3AC48864262
:100E000002D245F00C0511E0A948864203D3AC4854
:100E1000864200D20AE0AA48864205D3A948864203
:100E200002D245F0040501E045F01005A148056136
:100E30004FF400420021384600F01CFB10B900209E
:100E4000019069E0A04804F0F3FE2068002850D02B
:100E500000BF0298401C02900121384600F050FA71
:100E600000F0040018B9994902988842F1D39749D3
:100E70000298884202D1002001904DE000200290AB
:100E80004FF480520021384600F0F4FA08B90020EF
:100E9000019000BF0298401C02900121384600F0EA
:100EA0002FFA00F0200018B9884902988842F1D33F
:100EB00086490298884202D1002001902CE000204F
:100EC00002901F21384600F01BFA804608F01000FF
:100ED00018B14FF40060206201E00020206208F0A9
:100EE000040010B10020606115E04FF480406061A3
:100EF00011E0206AC0F3CF006169C1F34F0140EAFD
:100F000001020021384600F0B5FA08B9002001902E
:100F10006F4804F08DFE00BF019820B94FF40060C7
:100F20002062C0006061634805686A480540D4E9F2
:100F300001010843E16808432169084361690843E6
:100F4000A1690843E1690843216A0843616A0843CB
:100F5000A16A0843E16A0843216B0843616B0843B7
:100F6000054354480560056842F2107004F060FEC5
:100F700050480560D4E90E010843216C0843616CB8
:100F80000843A16C0843E16C0843216D0843616D7F
:100F90000843484948600846456842F2107004F02A
:100FA00047FE444845604349A06D8860E06DC860D5
:100FB000084685694FF641700540B4F86010606ED0
:100FC00040EA0140A16E0843E16E0843216F0843E7
:100FD000616F0843054337488561856942F21070A7
:100FE00004F026FE33488561D4E91E0108433149E7
:100FF000C8610846C56942F2107004F019FE2D4818
:10100000C5613548856935480540D4E92001084364
:10101000D4F888100843D4F88C100843D4F8901002
:101020000843D4F894100843D4F898100843D4F82F
:101030009C100843D4F8A010084305432648856156
:10104000856942F2107004F0F3FD23488561D4E90C
:1010500029010843D4F8AC100843D4F8B010084371
:10106000D4F8B41040EA8100D4F8B810084340F432
:101070000000194908600846056842F2107004F043
:10108000D7FD15480560006840F0800012490860EF
:101090000846056842F2107004F0CAFD0E4805606B
:1010A0000198012802D108B0BDE8F0810020FAE7DC
:1010B0000087930300800240002D3101C00E16020C
:1010C00000E1F50580D1F008F0E82600FFFF0400FC
:1010D000F0D870020F8120FF00900240233FDEF81D
:1010E00010B50B794C7943EA0422094B03441A6486
:1010F000CB781B068C7843EA04434C7843EA0423FC
:101100000C7843EA0402024B03445A6410BD000009
:101110000080024010B501214FF0606004F040FAF9
:10112000FFF7E6FC00F022F900BFFFF7ADFD012854
:10113000FBD01E4800F044F901201C490860002043
:10114000C8614FF4007088620020C86288634864F8
:10115000C864086548654FF4806048620020C1F8A3
:1011600080004FF00070C1F884000011C1F88C00BD
:101170000020C1F89400C1F898000420C1F8A00034
:10118000C005C1F8A4004012C1F8A8008001C1F850
:10119000AC004012C1F8B0004000C1F8B800002116
:1011A0000248FFF709FE0249086010BDF84C002014
:1011B0003C00002038B504460020009034B10C48B3
:1011C000006840F004000A49086005E0084800682B
:1011D00020F004000649086005480068009042F2CB
:1011E000107004F025FD02490098086038BD000029
:1011F0000080024038B504460020009034B10C480D
:10120000006840F008000A49086005E008480068E6
:1012100020F008000649086005480068009042F286
:10122000107004F005FD02490098086038BD000008
:101230000080024070B502460023002500242E489D
:101240000068006800F0004008B1002070BD2A4826
:10125000016840F2F450824208DD92FBF0F392FB09
:10126000F0F600FB162010B15B1C00E00123012BFF
:101270000CD1086840F040500860C2F30C00486090
:10128000086840F000400860C96826E0002422E0B9
:10129000086820F0405008601CB9086840F0805091
:1012A000086040F2F4504860581EA0420DD1086812
:1012B00040F000500860581EC0EBC01000EB40002A
:1012C000A2EB8005C5F30C004860086840F00040C0
:1012D0000860C968641C9C42DAD30748016007486B
:1012E000406900F0040020B10420044E7061002029
:1012F00070600120AAE700002C000020009002404E
:1013000018B502460B4600210020009015480169DF
:1013100001F01C014FF4784000EAC22001434FF471
:10132000F86000EA8310014321F0020141F001015D
:101330000C48016100BF0098401C009009480169F9
:1013400001F0010018B1084C0098A042F3D3064CFC
:101350000098A04201D1002018BD0248406980B227
:10136000FAE7000000800240FFFF04000348006825
:1013700040F0010001490860704700000090024001
:1013800010B50120FFF736FF0120FFF713FFFFF72D
:10139000BBFB0120FFF76EFB0120FFF71BFB10BD1D
:1013A00010B50020FFF766FB0020FFF713FB0020BD
:1013B000FFF700FFFFF7A8FB0020FFF71BFF10BDA2
:1013C00001210160002141608160C16001614FF431
:1013D0008041416100218161C1614FF4006101627E
:1013E000002141628162C162016341638163C16323
:1013F000402101642021416400218164C1640165B0
:1014000041658165C1650166802141660021816673
:10141000C166016741678167C1674FF08061C0F8AD
:1014200080104910C0F884100021C0F888104FF4D3
:101430000011C0F88C100021C0F89010C0F8941072
:10144000C0F89810C0F89C10C0F8A0104FF00071C0
:10145000C0F8A4104912C0F8A8108901C0F8AC1057
:101460004912C0F8B0100021C0F8B410C0F8B8108C
:101470007047000038B503460C460021002000905C
:101480001448016901F01C014FF4784000EAC320C0
:1014900001434FF4F86000EA8410014341F0020177
:1014A00041F001010B484261016100BF0098401CFE
:1014B00000900848016901F0010018B1064D00983C
:1014C000A842F3D3044D0098A84201D1002038BDB2
:1014D0000120FCE700800240FFFF04007FB50646C4
:1014E0000020039096F83100C0F3001000285DD072
:1014F00034480068002843D0002003904FF4805205
:1015000000210846FFF7B6FF00BF0398401C039078
:1015100001210020FFF7F4FE00F0200018B92A494D
:1015200003988842F1D3002003901F21FFF7E8FEC3
:10153000044604F0100020B14FF400602149086215
:1015400002E000201F49086204F0040018B10020E6
:101550001C49486103E04FF480401A4948611B4828
:101560000568184840691749096A08430543174840
:10157000056042F2107004F05BFB144805680560DA
:10158000FFF7FEFE0020029001900090012010491C
:1015900008706B4601AA02A90E4808F032FE0D48F9
:1015A00008F0B7FE00200C4908700AE0FFF7F8FECB
:1015B000052007490870304606F094F8054808F001
:1015C0003DFE7FBDF84C0020FFFF0400008002407C
:1015D00028000020141C002040000020F0B50A461E
:1015E00000210023002400BF3DE0012505FA01F39E
:1015F000156805EA03049C4234D105684F000326B0
:10160000BE40B543056015794E00B54006683543C8
:1016100005601579012D02D01579022D16D1856846
:101620004F000326BE40B543856055794E00B54056
:10163000866835438560456801268E40B543456020
:10164000456896798E40B6B235434560C5684F000F
:101650000326BE40B543C560D5794E00B540C66887
:101660003543C560491C1029BFD3F0BDF0B5002338
:1016700000244D07ED0E02FA05F3CE1000F120050F
:1016800055F826504E07F70E0F26BE40B543CF1033
:1016900000F1200646F82750CE1000F1200555F83D
:1016A000265045EA0304CE1000F1200545F82640F7
:1016B000F0BD4183704701837047000002A004F031
:1016C0009DF900BFFEE70000686172646661756C99
:1016D000742121210A0000001CB50121052003F01E
:1016E0005FFF0120009000208DF804008DF80700B6
:1016F00069460548FFF772FF4FF4005000906946B5
:101700000148FFF76BFF1CBD000802401CB501211A
:10171000802003F045FF4FF48060009001208DF899
:10172000040000208DF8060001208DF8070000203D
:101730008DF8050069461048FFF750FF4FF4006030
:10174000009069460C48FFF749FF4FF48050009025
:1017500069460948FFF742FF4FF480610648FFF7EA
:10176000AAFF4FF400610448FFF7A5FF4FF4805132
:101770000148FFF7A0FF1CBD001C024086B09AE0A4
:101780004D480078012802D002287DD112E00220C5
:1017900049490870494805F0C3FE002048490860DF
:1017A00048A004F02BF94DA004F028F951A004F052
:1017B00025F976E0414840684149086008460068DC
:1017C000002830D003203C4908703C4805F08AFFCF
:1017D0004EA004F013F954A004F010F93848006842
:1017E000000E0090364801780068C0F30743344883
:1017F0000088C0F3072253A004F000F90020FF2363
:101800001A461946009054A004F0F8F80120034647
:10181000A822C021009056A004F0F0F84FF4806098
:10182000594908803BE02548406A407B042836DD62
:10183000042021490870214805F054FF53480590C1
:101840006FF07F4004905248039003AB04AA05A9AF
:101850001A4808F0D6FC4FA004F0D0F853A004F0CA
:10186000CDF87A200123A822C021009035A004F0F1
:10187000C5F80020FF231A461946009036A004F050
:10188000BDF80120034600E00AE0A822C021009034
:1018900037A004F0B3F84FF480603B49088000E0C3
:1018A00000BF00BF02A80021FA230A46CDE90010BC
:1018B000084601F07FFD63E728000020141C00208B
:1018C000240000200A20202020204C6F6F6B696EBE
:1018D0006720666F72202020200A00002020202030
:1018E0002044484350207365727665722020202082
:1018F0000A0000002020202020706C6561736520A4
:10190000776169742E2E2E200A0000000A202049DB
:101910005020616464726573732061737369676ECC
:101920006564200A000000002020202062792061E8
:101930002044484350207365727665722020200A47
:101940000000000049503A2025642E25642E2564AD
:101950002E25640A000000004E45544D41534B3A79
:101960002025642E25642E25642E25640A0000009F
:10197000476174657761793A2025642E25642E25A8
:10198000642E25640A0000001A1C0240C0A8017AD7
:10199000C0A801010A202020204448435020746937
:1019A0006D656F7574202020200A0000202053747C
:1019B00061746963204950206164647265737320A7
:1019C00020200A0000B587B0002108460DF080FBFA
:1019D000002006900590049019481A49002204AB93
:1019E000CDE90021029005AA06A9174808F084FB5A
:1019F000154808F01BFC1548006811280ED1124844
:101A000090F8310040F010000F4981F8310008468D
:101A100008F07FFC01200E4908700BE00A4808F02E
:101A20000DFC05200A4908700AA003F0E7FF0FA08B
:101A300003F0E4FF1349044808F060FC07B000BD60
:101A4000A5F10008CD890008141C00203C000020EE
:101A5000280000200A20204E6574776F726B2043A7
:101A600061626C6520697320200A0000202020201C
:101A70006E6F7420636F6E6E6563746564202020E2
:101A80000A000000DD14000810B5012000F002F883
:101A900010BD000070B50446002500BF00BFFEF772
:101AA000A5FB054600BFFEF761FE00BF05480460C8
:101AB00000BFFEF775FE00BF2846FEF79BFB00BF88
:101AC00000BF70BD6000002000BFFEE730B50546D6
:101AD0000C4622460021284600F060F830BD000088
:101AE0003EB500200B4908600B4C02A801218B0277
:101AF0002246CDE90010094909A000F015F8BDF80B
:101B0000080042F21071884203D000BFFEF7C8FE01
:101B100000BF3EBD64000020C44D0020C451002021
:101B200048656170000000002DE9F84F05460E463B
:101B300017461C46DDE90A894FF0000A00BF00BFC6
:101B4000FEF754FB824600BFFEF710FE00BF43467F
:101B50003A4631462846009400F010F800BFFEF7E0
:101B60001FFE00BF5046FEF745FB00BF00BF42F21C
:101B70001070A9F80000BDE8F88F000030B5039C94
:101B80000A60651E15444D608A60034D2D68CD6066
:101B90000B61014D296030BD640000202DE9F0414A
:101BA00005460B4694460027002402E03F021F43EF
:101BB000641C042CFAD3604605F00306294646B19E
:101BC000344603E001F8013B401E641C08B1042CBC
:101BD000F8D30A4601E080C2001F0428FBD2114658
:101BE00002E001F8013B401E0028FAD1BDE8F08177
:101BF0007047000002490143024A1160704700002B
:101C00000000FA050CED00E07047704770B504461F
:101C100000F094F800203B4908703B4908703B49AC
:101C200008703B4908603B4908603B4908703B49E4
:101C300008703B4908703B4908703B4800680A211E
:101C4000B0FBF1F0394908603948006858B13948AB
:101C5000056845B13648066803E0761E0020286016
:101C60002D1D002EF9D100203349087002F02AF909
:101C700002F0E2F9204601F063FD208800B170BD5A
:101C8000204601F0DBFD208800B1F8E7204601F096
:101C9000E1FD208800B1F2E7204601F059FF2088DD
:101CA00000B1ECE7204602F055F9208800B1E6E7E4
:101CB000204602F005FB208800B1E0E7204602F054
:101CC00069FE208800B1DAE7204601F06BFD20882C
:101CD00000B1D4E7204603F0E3FA208800B1CEE754
:101CE000204602F02BFD208800B1C8E7204603F013
:101CF0003BFB208800B1C2E701F04EFCFFF784FFF8
:101D000000BFBCE770000020780000209E0000208B
:101D10000C01002010010020920000209300002000
:101D200094000020A40000202CFA0008A00000204D
:101D3000FCF90008F8F90008D20000200648006805
:101D40000649096800EB81000549086008460068FB
:101D500020F0070008607047F8F90008FCF9000857
:101D60001401002010B500242D480078012800D06F
:101D700010BD00BFFEF73AFA044600BF29480078BC
:101D800028B900BF2046FEF735FA00BFF0E7254826
:101D90000078401E2349087008460078002805DDB9
:101DA00000BF2046FEF726FA00BFE1E71E48007894
:101DB000002805DD00BF2046FEF71CFA00BFD7E76C
:101DC00002F06CF8194908700846007800EB4000F2
:101DD000174951F82000174908600846006816495D
:101DE0000968884205D100BF2046FEF703FA00BF0C
:101DF000BEE710480068D0F89400401C0D490968FF
:101E0000C1F894000D480068401C0C490860FEF7BA
:101E1000DAFA00BF2046FEF7EDF900BF00BFA7E7E2
:101E200078000020700000209E0000209300002019
:101E30000C620020100100200C010020C8000020CE
:101E40002DE9FC5F0446894615461E46DDF830A0A4
:101E500000200090A8462F46701E80B201904FF0DF
:101E6000000B07E05744C8F80070B8460BF10100BA
:101E70001FFA80FB01988345F4DB0020C8F80000BE
:101E800000BF00BFFEF7B2F9009000BFFEF76EFC86
:101E900000BF10482060C4F808906560E560A68225
:101EA0006682A4F810A0204601F0B4FC0A4800881D
:101EB000401C0949088000BFFEF772FC00BF009873
:101EC000FEF798F900BF00BF00210D980180BDE822
:101ED000FC9F00004D454D20880000202DE9F04179
:101EE00004460D46002700BF00BFFEF77FF90746F6
:101EF00000BFFEF73BFC00BFA08A70B900BFFEF731
:101F00004FFC00BF3846FEF775F900BF00BF45F231
:101F1000C26028800020BDE8F081E6683068E0609B
:101F2000A08A401EA08200BFFEF73AFC00BF3846E0
:101F3000FEF760F900BF00BF002028803046EAE7C6
:101F40002DE9F04104460D461646002700BF00BFAC
:101F5000FEF74CF9074600BFFEF708FC00BF11482A
:101F60002060656000202062606284F82800E062E2
:101F700004F1080001F09DFE204601F079FD0A48B9
:101F80000088401C0849088000BFFEF709FC00BF1C
:101F90003846FEF72FF900BF00BF00203080BDE8B3
:101FA000F08100004D555458900000202DE9F04775
:101FB00088B00546884691461C46109E4FF0000AA0
:101FC00072492868884205D045F6C450308008B070
:101FD000BDE8F0870CB10020206000BF00BFFEF715
:101FE00005F9824600BFFEF7C1FB00BF95F8280047
:101FF000C8B9674800686862012085F828000CB1FC
:10200000E86A206029466248006801F049FD00BF87
:10201000FEF7C6FB00BF5046FEF7ECF800BF00BF5E
:1020200000203080D3E75A49686A0968884225D180
:1020300095F82800FF280CD100BFFEF7B1FB00BFC8
:102040005046FEF7D7F800BF00BF45F284703080DD
:10205000BDE795F82800401C85F828000CB1E86A17
:10206000206000BFFEF79CFB00BF5046FEF7C2F8A1
:1020700000BF00BF45F282703080A8E709F400403D
:1020800060B100BFFEF78CFB00BF5046FEF7B2F810
:1020900000BF00BF46F2B010308098E73D4800789E
:1020A00000280CDD00BFFEF77BFB00BF5046FEF7AB
:1020B000A1F800BF00BF46F66350308087E76F6A23
:1020C00097F837003249096891F83710884206DDE1
:1020D0002F48006890F83710384602F0ABFB4346B3
:1020E00004222946684601F03FFD00BFFEF758FB79
:1020F00000BF5046FEF77EF800BF00BF00F030FA88
:1021000000BF00BFFEF772F8824600BFFEF72EFB4D
:1021100000BF1F48006890F8350030B101280CD08E
:1021200002281AD0032821D110E01CB118480068F9
:10213000806C2060002030801CE01CB114480068D6
:10214000806C206046F2A910308013E00CB10020B2
:10215000206047F2D92030800CE01CB10C480068A8
:10216000806C206045F6C250308003E046F62E6059
:10217000308000BF00BF00BFFEF712FB00BF50461B
:10218000FEF738F800BF00BF00BF20E74D55545898
:102190000C0100209E0000202DE9F84F04468A46DD
:1021A00015464FF0000B58492068884204D045F688
:1021B000C4502880BDE8F88F00BF00BFFEF716F8B6
:1021C000834600BFFEF7D2FA00BF5049606A096833
:1021D00088420CD000BFFEF7E3FA00BF5846FEF776
:1021E00009F800BF00BF45F281702880E2E7FEF7E2
:1021F00083FB80462834C4F804802078401E207079
:1022000014F8280900280CDD00BFFEF7C9FA00BF4A
:102210005846FDF7EFFF00BF00BF45F283702880EE
:10222000C8E721463948006801F084FC04F1080938
:10223000B9F8080078B90020606284F8280000BF6F
:10224000FEF7AEFA00BF5846FDF7D4FF00BF00BF4F
:1022500000202880AEE72D48006890F837002B4911
:10226000096891F83810884228D02848006801F0A1
:102270004BFC06462548006890F83810B14204DA55
:102280002248006890F8380000E0304606461F48B3
:10229000006890F83700B04210DA1C48006801F07E
:1022A00053FF1A48006880F83760304601F016FE88
:1022B0001648006801F008FF15480670D9F80000BC
:1022C00087686762012084F828002146384601F0BB
:1022D000E7FB00231A4639462046CDF8008001F07E
:1022E0005BFD00BFFEF75CFA00BF5846FDF782FFBA
:1022F00000BF00BF0AF4004008B900F031F9002027
:10230000288000BF56E700004D5554580C010020AE
:10231000920000202DE9F04104460D4616461F4666
:102320004FF0000800BF00BFFDF760FF804600BF10
:10233000FEF71CFA00BF104820606560314604F1CA
:10234000200001F00BFB04F1080001F0B2FC204674
:1023500001F0E8FD09480088401C0849088000BFDA
:10236000FEF71EFA00BF4046FDF744FF00BF00BF66
:1023700000203880BDE8F081515545559C00002073
:102380002DE9F04F89B00746884691461E46DDE9A3
:1023900012454FF0000B5F493868884206D045F679
:1023A000C4502880002009B0BDE8F08F0CB1002097
:1023B000206000BF00BFFDF719FF834600BFFEF796
:1023C000D5F900BF2B462246314607F1200001F027
:1023D00091FA8246288850B900BFFEF7E1F900BFA4
:1023E0005846FDF707FF00BF00BF5046DBE709F482
:1023F000004068B100BFFEF7D3F900BF5846FDF7B3
:10240000F9FE00BF00BF46F2B01028800020CAE7E6
:102410004148007800280DDD00BFFEF7C1F900BF7C
:102420005846FDF7E7FE00BF00BF46F66350288020
:102430000020B8E743460522394601A801F094FB85
:1024400000BFFEF7ADF900BF5846FDF7D3FE00BF51
:1024500000BF00F085F800BF00BFFDF7C7FE834650
:1024600000BFFEF783F900BF2C48006890F83500E4
:1024700030B1012815D002282AD0032835D11DE01B
:1024800026480068D0F860A024480068B0F86400CE
:1024900030801CB121480068806C206000202880BA
:1024A0002BE04FF0000A002030801CB11B48006870
:1024B000806C206046F2A91028801EE04FF0000AD0
:1024C0000020308004B1206047F2D920288014E039
:1024D0004FF0000A002030801CB110480068806C6A
:1024E000206045F6C250288007E04FF0000A002027
:1024F000308046F62E60288000BF00BF00BFFEF788
:102500004FF900BF5846FDF775FE00BF00BF5046AB
:1025100049E70000515545559E0000200C01002060
:102520002DE9FC4704460F46904699460A9D0B4903
:102530002068884204D045F6C4502880BDE8FC8756
:10254000FEF7DAF906464B46424639462046CDE9C3
:10255000006501F00BFD00BFF0E700005155455547
:1025600010B5002420480078002800DD10BD1F4869
:102570000078002800DDF9E700BFFDF737FE0446CC
:1025800000BF01F08BFC1A4908700846007800EB88
:102590004000184951F820001749086008460068B3
:1025A00016490968884205D100BF2046FDF722FE82
:1025B00000BFDBE710480068D0F89400401C0E49CB
:1025C0000968C1F894000E480068401C0C49086076
:1025D000FDF7F4FE00BF2046FDF70CFE00BFBFF381
:1025E0006F8F00BFC2E70000700000209E00002037
:1025F000930000200C620020100100200C0100203C
:10260000C800002070B50446002515480078012850
:1026100003D045F68960208070BD12480078FA2802
:1026200003DB45F209202080F6E700BF00BFFDF77D
:10263000DDFD054600BFFEF799F800BF09480078A8
:10264000401C0849087000BFFEF7AAF800BF2846E2
:10265000FDF7D0FD00BF00BF0020208000BFDBE7FA
:10266000780000209E00002070B5044600251E481A
:102670000078012803D045F68960208070BD1B4892
:10268000007818B946F664502080F7E700BF00BF15
:10269000FDF7ACFD054600BFFEF768F800BF134824
:1026A0000078401E114908700846007800280CDDAB
:1026B00000BFFEF775F800BF2846FDF79BFD00BF81
:1026C00000BF46F663502080D8E700BFFEF768F8E9
:1026D00000BF2846FDF78EFD00BF00BFFFF740FF9B
:1026E0000020208000BFC9E7780000209E00002065
:1026F0002DE9F04104460D4616461F464FF00008EE
:1027000000BF00BFFDF772FD804600BFFEF72EF848
:1027100000BF0F482060266200206062656004F1FF
:10272000080001F0C6FA204601F0B2FD0948008811
:10273000401C0849088000BFFEF732F800BF404641
:10274000FDF758FD00BF00BF00203880BDE8F081D4
:1027500053454D41AC0000202DE9F04788B00546B7
:10276000884691461C46109E4FF0000A5949286839
:10277000884206D045F6C4503080002008B0BDE83D
:10278000F0870CB10020206000BF00BFFDF72EFDD8
:10279000824600BFFDF7EAFF00BF286A98B1286AA9
:1027A000401E28620CB1686A20602F6A00BFFDF7E6
:1027B000F7FF00BF5046FDF71DFD00BF00BF002022
:1027C00030803846DAE709F4004070B12F6A00BF64
:1027D000FDF7E6FF00BF5046FDF70CFD00BF00BF50
:1027E00046F2B01030803846C8E73B4800780028F1
:1027F0000DDD00BFFDF7D4FF00BF5046FDF7FAFC2A
:1028000000BF00BF46F6635030800020B6E7434665
:1028100006222946684601F0A7F900BFFDF7C0FF70
:1028200000BF5046FDF7E6FC00BF00BFFFF798FE73
:1028300000BF00BFFDF7DAFC824600BFFDF796FF40
:1028400000BF2648006890F8350030B101280CD050
:1028500002281AD0032821D110E01CB11F480068BB
:10286000806C20600020308026E01CB11B4800688E
:10287000806C206046F2A91030801DE00CB1002071
:10288000206047F2D920308016E01CB11348006860
:10289000806C206045F6C25030800DE046F62E6018
:1028A000308000BFFDF77CFF00BF5046FDF7A2FC63
:1028B00000BF00BF002061E700BF2F6A00BFFDF727
:1028C0006FFF00BF5046FDF795FC00BF00BF3846C4
:1028D00054E7000053454D419E0000200C010020AC
:1028E0002DE9F04105460E4614460B4928688842FA
:1028F00005D045F6C45020800020BDE8F081FDF7EA
:10290000FBFF8046234642463146284601F0E4FC60
:1029100007463846F1E7000053454D4110B50446DF
:1029200012480078E8B901F0B9FA11490870084670
:102930000078104908700E48007800EB40000E49FE
:1029400051F820000D490860084600680C490860ED
:10295000012006490870FDF7F3FC43F6992020801A
:1029600002E045F68A60208010BD0000780000205B
:1029700093000020920000200C6200201001002033
:102980000C0100202DE9F04107464FF0000800BF80
:1029900000BFFDF72BFC804600BFFDF7E7FE00BF40
:1029A0000020424908804249086042490860424983
:1029B0000860424908604249088100BFFDF7F0FE07
:1029C00000BF4046FDF716FC00BF00BF00BF00BFC0
:1029D000FDF70CFC804600BFFDF7C8FE00BF39487C
:1029E000046800BFFDF7DCFE00BF4046FDF702FCB7
:1029F00000BF00BF25E000BF00BFFDF7F7FB80462A
:102A000000BFFDF7B3FE00BF00207C34E063206010
:102A10002063A061A082E0826062A062FDF76CFF8B
:102A200020627C3C04F168060020B081D4F8C040EC
:102A300000BFFDF7B5FE00BF4046FDF7DBFB00BF62
:102A400000BF002CD7D100BF00BFFDF7CFFB8046F1
:102A500000BFFDF78BFE00BF1B48056800BFFDF7F8
:102A60009FFE00BF4046FDF7C5FB00BF00BF16E05C
:102A700000BF00BFFDF7BAFB804600BFFDF776FE42
:102A800000BF05F120060020B081AD6900BFFDF751
:102A900087FE00BF4046FDF7ADFB00BF00BF002D25
:102AA000E6D100203880BDE8F0810000B2000020AF
:102AB000C4000020D8000020FC000020740000208A
:102AC00000620020CC00002098000020F8B50446E9
:102AD00000266946364800F0CDFBBDF8000018B16D
:102AE000BDF800002080F8BD6A460021022000F0F9
:102AF00009FCBDF8000018B1BDF800002080F2E725
:102B000000BF00BFFDF772FB064600BFFDF72EFEBB
:102B100000BF00202749086000BFFDF741FE00BF4D
:102B20003046FDF767FB00BF00BF00252248006864
:102B300022490968884205D91F4800681F49096869
:102B4000B0FBF1F525B91C4800680A21B0FBF1F58E
:102B50006A460021284600F0D5FB6946144800F07B
:102B6000B6F9BDF8000018B1BDF800002080BAE742
:102B700000BF00BFFDF73AFB064600BFFDF7F6FDBC
:102B800000BF00200E4908600A4800680D4908602F
:102B900001200D49087000BFFDF702FE00BF30465E
:102BA000FDF728FB00BF00BF0020208000BF9AE790
:102BB0004C650020B40000202CFA000814FA00082C
:102BC000C4000020B8000020C000002070470000B2
:102BD0002DE9FF4F85B004469146DDF854B0DDE99C
:102BE00012A5199E00200290BAF11F0F09D14B487F
:102BF000844206D046F273211A98018009B0BDE8DC
:102C0000F08F204601F0D6FE00211A98018006F0D0
:102C1000010088B106F0020070B1A84600200490BF
:102C200007E00020C8F8000008F104080498401CE0
:102C3000049004985845F4D3149805EB8000039051
:102C4000CDE900B62A464846039B089900F0B0FA41
:102C50008046C4F828900898E0620698206284F8BC
:102C600037A084F838A0C4F800800398A0601798B3
:102C7000A065179818B92A480068E06501E0179820
:102C8000E065189860606562C4F840B0A4F84460DC
:102C9000002706E0002104F1800040F82710781C8E
:102CA000C7B2002FF6D004F16800169900F056FE66
:102CB000204600F03BF800BF00BFFDF797FA0290F6
:102CC00000BFFDF753FD00BF94F8370001F006F98F
:102CD000204601F0F9F9204601F022FE1148008853
:102CE000401C1049088010480078012809D000BF16
:102CF000FDF756FD00BF0298FDF77CFA00BF00BF4C
:102D00007CE700BFFDF74CFD00BF0298FDF772FAAB
:102D100000BF00BFFFF724FC00BF6FE73861002051
:102D2000A0000020D00000207800002070470000A4
:102D30002DE9F04104460E464FF0000860488442F9
:102D400004D147F24C103080BDE8F0819CB900BF3F
:102D500000BFFDF74BFA804600BFFDF707FD00BF3F
:102D60005848046800BFFDF71BFD00BF4046FDF753
:102D700041FA00BF00BF00BF00BFFDF737FA804631
:102D800000BFFDF7F3FC00BF94F83600082860D2BE
:102D9000DFE800F004090E10080A0F11204601F0C8
:102DA000D3F963E062E000BF204602F039F95DE04C
:102DB00000BF00BF00BF94F8340008283BD2DFE812
:102DC00000F0040705080E090A0600BF00BF33E043
:102DD00000BF00BF00BF204600F0A3FF2CE0206B27
:102DE000C068456A15F8377F204600F09AFF2878BA
:102DF0006978373D884212D095F8370094F837103B
:102E000088420CD1284600F07FFE074695F838002E
:102E1000B84202DA95F8380000E03846074600204C
:102E200084F8340095F83700B84203D03946284674
:102E300001F000FD00E000BF00BF94F83600032859
:102E400003D094F83600072802D1204602F0E8F8B3
:102E50000CE000BFFDF7A4FC00BF4046FDF7CAF937
:102E600000BF00BF46F62D6030806DE700BFE06B0D
:102E700010B1204600F018FE04F1680000F018FDC3
:102E8000204600F023F8204601F062FD0E4800883D
:102E9000401E0D490880204601F08CFDFF2084F87B
:102EA000360000BFFDF77CFC00BF4046FDF7A2F9ED
:102EB00000BF00BF00203080FFF752FB00BF43E798
:102EC000386100200C010020D0000020704770B550
:102ED00004460D46002600BF00BFFDF787F90646F1
:102EE00000BFFDF743FC00BF00BFFDF759FC00BF6A
:102EF0003046FDF77FF900BF00BF2946204601F0AC
:102F0000BFFD70BD704700002DE9F04707468846B9
:102F100014461D464FF000090CB10020206000BF90
:102F200000BFFDF763F9814600BFFDF71FFC00BF3E
:102F300065480068C06CC0B363480068C06C401E40
:102F400061490968C86460480068C66C1CB15E4885
:102F50000068806C2060FDF7CFFC5B490968896CD4
:102F6000401A59490968C1F8A80057480068D0F8C4
:102F7000AC0055490968D1F8A810884207D25248D8
:102F80000068D0F8A80050490968C1F8AC0000BF3B
:102F9000FDF706FC00BF4846FDF72CF900BF00BF57
:102FA000002028803046BDE8F087FFE708F40040A5
:102FB00068B100BFFDF7F4FB00BF4846FDF71AF902
:102FC00000BF00BF46F2B01028800020EBE73F486A
:102FD000007800280DDD00BFFDF7E2FB00BF48468A
:102FE000FDF708F900BF00BF46F6635028800020B7
:102FF000D9E73B4607220021084600F0B5FD00BF97
:10300000FDF7CEFB00BF4846FDF7F4F800BF00BF58
:10301000FFF7A6FA00BF00BFFDF7E8F8814600BF42
:10302000FDF7A4FB00BF2848006890F8350020B1E8
:10303000012826D0032834D12CE0FCB122480068B6
:10304000806C2060FDF758FC1F490968896C401AA4
:103050001D490968C1F8A8001B480068D0F8AC00F9
:1030600019490968D1F8A810884207D216480068A3
:10307000D0F8A80014490968C1F8AC0000202880E5
:1030800013E01CB110480068806C206046F2A91063
:1030900028800AE00CB10020206047F2D920288067
:1030A00003E046F62E60288000BF00BF0648006897
:1030B000C66C00BFFDF774FB00BF4846FDF79AF8E9
:1030C00000BF00BF30466EE70C0100209E000020CC
:1030D0002DE9F04105460E461446FDF70DFC8046ED
:1030E000234642463146284601F064FD07463846ED
:1030F000BDE8F0812DE9F04704460D4616461F460F
:103100004FF0000A00BF00BFFDF770F8824600BF15
:10311000FDF72CFB00BF0CB924480468206880B977
:1031200000BFFDF73DFB00BF5046FDF763F800BF51
:1031300000BF00202860306047F252103880BDE8A0
:10314000F08794F8440000F0010078B900BFFDF763
:1031500027FB00BF5046FDF74DF800BF00BF002021
:103160002860306047F254103880E8E700BFFDF770
:1031700017FB00BF5046FDF73DF800BF00BF4FF002
:103180000008D4F8249003E009F1040908F10108CB
:10319000D9F800000028F7D0C5F80080206CA0EB1B
:1031A000080030600020388000BFC8E70C01002014
:1031B000F0B50446DDE9055602EB850020F0070076
:1031C0004FF0807C071F3846C7F800C0071F3846FD
:1031D0003C60DFF89CC0071F3846C7F800C04FF0BE
:1031E000123C071F3846C7F800C04FF0033C071FCA
:1031F0003846C7F800C04FF0023C071F3846C7F8F2
:1032000000C0071F38463B60071F384639604FF043
:10321000113C071F3846C7F800C04FF0103C071F8D
:103220003846C7F800C04FF0093C071F3846C7F8BA
:1032300000C04FF0083C071F3846C7F800C04FF0E9
:10324000073C071F3846C7F800C04FF0063C071F71
:103250003846C7F800C04FF0053C071F3846C7F88E
:1032600000C04FF0043C071F3846C7F800C0F0BD4F
:103270009D4B000870B505460C460648854203D1B3
:1032800047F25B10208070BD2146284601F08AFD80
:1032900000BFF8E73861002070B5FDF72DFB05464B
:1032A0001648006816490968884215D01348006816
:1032B000D0F89C00281A11490968C1F898000F48F5
:1032C0000068D0F8A0000D490968D1F898100844AA
:1032D0000A490968C1F8A00009480068C0F89C5074
:1032E000FDF718FA044605480068D0F8B800A04277
:1032F00003D202480068C0F8B84070BD0C0100203D
:10330000100100202DE9F04105460E461446002725
:1033100026480078002804DD46F663502080BDE88A
:10332000F08136B1022E05D0042E0AD0082E09D124
:1033300001E000BF00BF1DB947F27E202080EEE70C
:1033400004E003E045F625602080E8E700BF00BF09
:1033500000BFFCF74BFF074600BFFDF707FA00BFB1
:103360002346324629461248006801F0FBFD2088BA
:1033700048B100BFFDF714FA00BF3846FCF73AFF2A
:1033800000BF00BFCBE70A48006800F0DDFE00BFC9
:10339000FDF706FA00BF3846FCF72CFF00BF00BF60
:1033A000FFF7DEF80020208000BFB8E79E00002075
:1033B0000C0100202DE9F84F06460F46904699462D
:1033C0000B9C002000903D480078002804DD46F664
:1033D00063502080BDE8F88F0A9800F00E0ABAF119
:1033E000000F09D0BAF1020F07D0BAF1040F12D0C2
:1033F000BAF1080F10D101E000BF00BFB9F1000F12
:1034000008D1B8F1000F05D127B91EB947F27E20C7
:103410002080DFE704E003E045F625602080D9E75F
:1034200000BF274805684FF4FA70B0FBF5F0484438
:1034300068434FF47A71B0FBF1F14FF4616070436F
:10344000C7EB071200EB8200404400FB051BBBF1F9
:10345000000F2DD000BF00BFFCF7C8FE009000BFDA
:10346000FDF784F900BF23465246594615480068C7
:1034700001F078FD208848B100BFFDF791F900BF49
:103480000098FCF7B7FE00BF00BFA3E70D48006837
:1034900000F05AFE00BFFDF783F900BF0098FCF76B
:1034A000A9FE00BF00BFFFF75BF80020208002E00C
:1034B00047F27E20208000BF8CE700009E000020A5
:1034C0002CFA00080C01002008B500F02BF86A4621
:1034D00000210E48FFF7FCFD0D49097801EB410181
:1034E0000C4A02EB810000F05DFE0B480068401EB4
:1034F000094908600846006838B90848006808604B
:103500006A4600210648FFF7E3FD08BD5464002029
:10351000920000200C62002008010020040100201D
:103520004C6500207047000010B5002400BF00BFAC
:10353000FCF75CFE044600BFFDF718F900BF094820
:103540000078401C0749087000BFFDF729F900BF4B
:103550002046FCF74FFE00BF00BFFFF7B5FFFEF7A8
:1035600001FC10BD7000002001464A1E4FF0E02310
:103570005A61084A106820F07F4000BF10601A4668
:10358000126942F005021A611A46126942F00202FB
:103590001A61704720ED00E0244A2549254A264A51
:1035A0002649274A2748284A284A294A294A2A4890
:1035B0002A482B4A2B482C4A2C482D4A2D482E4865
:1035C0002E482F482F4A304A304A3148314A324A31
:1035D0003248334833483448344835483548364A09
:1035E000364A374A374A384838483948394A3A4AD1
:1035F0003A4A3B483B483C483C493D483D4A3E4AA4
:103600003E4A3F4A3F4A404A404A4148414A424A6C
:1036100042484348434A444A4448454A454A464842
:10362000464800BF00BF00BF7047000060FA0008B6
:10363000C8FB000861FA000862FA000864FA000892
:1036400068FA00086CFA000869FA000894FA0008A1
:1036500095FA000896FA000898FA00089AFA000805
:103660009EFA0008A0FA0008C0FA0008C2FA000892
:10367000C4FA0008C6FA0008C8FA0008CAFA000826
:10368000CCFA0008FCFA0008FDFA0008FEFA00086F
:1036900000FB000802FB000803FB000804FB000815
:1036A00006FB000808FB00080AFB00080CFB0008EA
:1036B0000EFB000810FB000840FB000841FB00085F
:1036C00042FB000843FB000844FB000846FB0008DF
:1036D00048FB000870FB000871FB000872FB000843
:1036E00073FB000874FB000876FB000878FB0008F9
:1036F0007CFB00087DFB00087EFB00087FFB0008C8
:1037000080FB000881FB000882FB000883FB0008A7
:1037100084FB000886FB000887FB000888FB000884
:103720008AFB00088CFB00088DFB000890FB00085A
:10373000C0FB0008C1FB0008C2FB0008C4FB000876
:103740000021034A1160034A118001807047000084
:103750007C0000208000002000241DE000BF00BF8E
:10376000FCF744FD044600BFFDF700F800BF0B481E
:103770000068401C0949086009480068401C084965
:10378000086000BFFDF70CF800BF2046FCF732FDD3
:1037900000BF00BFFEF739FAE0E700006C00002030
:1037A000B400002010B58AB0044600200E4908601D
:1037B0000B2000210591CDE90704069108460B492D
:1037C00009680B4A12680B4B1B68CDE90132CDE941
:1037D00003101F200023084A08A100900C48FFF79F
:1037E000F7F90AB010BD00006C000020D4F9000801
:1037F000D0F90008CCF900085937000875432F4F5D
:10380000532D4949492049646C65205461736B000C
:1038100038610020002181610749096811B9002140
:10382000C16105E004490968C1610349096888610B
:103830000149086070470000840000200021034A0D
:103840001160034A1180018070470000840000204D
:103850008800002070B50246124D28682968103192
:10386000114D2D886D1EACB2002308E001600025CB
:1038700045600581C560103010315D1CABB2A342BC
:10388000F4DB0025056045600581C560054D2D68A8
:10389000064E3560044D2D88B5800025F5803581B4
:1038A000158070BD0CFA000804FA000800620020C0
:1038B00010B5014648894B89002B17DD0A680C4B6F
:1038C0001B6813600A4C4B6823602346DB884C89D5
:1038D0001B1B074CE38023469B884C892344044CE4
:1038E000A38000234B818B810B604B6010BD0000D7
:1038F00000620020F0B504460D46608940B9002002
:10390000288002B1106046F2925018800020F0BD6D
:1039100061684E68088928800AB1C8681060086824
:103920006060606818B900202060608102E06089F2
:10393000401E608108480068086007480160808870
:10394000401C054FB8803846C088401EF8800020D3
:1039500018803046DBE70000006200200181002271
:103960004281828102604260704700002DE9F0418F
:103970000D46DDE90674B0F80AC0B0F80880C44509
:1039800005DB46F2935CA4F800C0BDE8F081DFF8E7
:10399000DCC0BCF804C0BCF1000F04D145F21D7CB2
:1039A000A4F800C0F1E7DFF8C4C0DCF80010DFF8CD
:1039B000BC80D1F800C0C8F800C0C446BCF804C040
:1039C000ACF1010CA8F804C0C446BCF806C00CF168
:1039D000010CA8F806C0C446BCF808C0B8F80680B8
:1039E000C44507DADFF884C0BCF806C0DFF87C8085
:1039F000A8F808C0B0F80AC0BCF1000F0AD10160F5
:103A000041604FF0010CA0F80AC04FF0000CC1F863
:103A100000C017E003F0100CBCF1000F07D10668DE
:103A2000316001604FF0000CC1F800C004E0D0F834
:103A300004C0C1F800C04160B0F80AC00CF1010C2C
:103A4000A0F80AC0B0F80CC0B0F80A80C44503DA88
:103A5000B0F80AC0A0F80CC04D600A81CF604FF0EA
:103A6000000CA4F800C000BF8FE700000062002037
:103A700009A1C161002141610849096811B900210A
:103A8000816105E005490968816104490968486167
:103A90000249086070470000200000008C000020F0
:103AA000C26B0A62C16370472DE9F8430546EC6BAF
:103AB00026E0D4F82090FCF71FFF0646E662214678
:103AC000284600F037F804F10808B8F8080020B9D3
:103AD000002084F82800606211E0D8F800008768B0
:103AE0006562012084F8280021463846FFF7D8FF98
:103AF00000231A4639462046009600F04DF94C4600
:103B0000002CD6D1BDE8F88330B504461F2004F15F
:103B10003C010BE00D68AB682BB19D6895F8372030
:103B2000824200DA10460D6805F120010D68002D73
:103B3000F0D130BD024602F13C0002E0036803F11F
:103B4000200003688B42F9D103681B6A0360704749
:103B50000021034A1160034A118001807047000070
:103B60008C000020900000202DE9F04105460C4615
:103B700016461F461548006880F834600020134937
:103B8000096881F8350039461048006800F03CFEAD
:103B90006CB104F10808EC60012229460B4800686A
:103BA00000F016F82946404600F088F807E00020AB
:103BB00006490968A1F846000449096808630348F2
:103BC0000168204600F018F8BDE8F0810C010020E3
:103BD00010B5A0F84620016300230AE000244C60E1
:103BE0000C600C614C610C83CC61886020315C1CE2
:103BF000A3B29342F2DB10BD30B548B14568C1F8BD
:103C0000C45000F10804226893681D6AC56113E07E
:103C100091F83450022D02D0072D08D103E007A5FA
:103C2000C1F8C45007E007A5C1F8C45003E008A5D7
:103C3000C1F8C45000BF00BF30BD00005461736BB9
:103C4000205100005461736B2053656D000000002B
:103C50002000000030B507A5C1F8C45000F10804E9
:103C600022681AB193681D6AC56101E001A5C561AA
:103C700030BD0000200000002DE9F0410446256B16
:103C8000B4F8467011E0D5F80C8008F108063089C8
:103C9000012807D92946304600F05DF8294630460C
:103CA00000F00CF82035781E87B2002FEBD1BDE86C
:103CB000F08100210160416001817047F0B58E689C
:103CC00096F8375007893FB90127078100274F60D1
:103CD0000F600160416023E007897F1C0781026853
:103CE00006E0946894F83770AF4200DD02E0526855
:103CF000002AF6D100BF32B900274F6043680B603D
:103D0000596041600CE017682FB9116000270F60FF
:103D10004A60016004E013680B604A6059601160FA
:103D2000F0BD2DE9F0410446256BB4F846600AE089
:103D3000D5F80C8008F108072946384600F00BF842
:103D40002035701E86B2002EF2DC0020A4F846005A
:103D50002063BDE8F08110B50489012C03D1002453
:103D60000460446011E00C6824B94A6800241460BF
:103D700002600AE04C6824B90B6800245C60436070
:103D800003E00B684A685A6013600489641E04816A
:103D900000244C600C6010BD2DE9F84306460C462B
:103DA00017469846089D94F8360008285BD2DFE84D
:103DB00000F0040508090607323300BF00BF00BF4A
:103DC00052E000BF94F83400032807D143463A4636
:103DD00021463046009500F04AF803E02766A4F833
:103DE0006480A56436B12046FFF79BFF214630462C
:103DF000FFF730FF94F83600032802D1204601F087
:103E00000FF9204600F02AF900203434A0706070C9
:103E100004F8340928E000BF94F83400032807D1DF
:103E200043463A4621463046009500F020F803E02C
:103E30002766A4F86480A56436B12046FFF771FFB9
:103E400021463046FFF706FF94F83600072802D1D6
:103E5000204601F0E5F804203434A07000206070A2
:103E600004F8340900E000BF00BFBDE8F883F0B5F6
:103E70000446059E086BB1F846500AE0C768A742A1
:103E800004D1046142610383C66104E020306F1EE7
:103E9000BDB2002DF2DC00BFF0BD000070B5002502
:103EA000074C03E005F12000C5B2241D206800285E
:103EB000F8D02068FCF7A5F92844C5B2284670BDA3
:103EC00068000020002004E00021034A42F820108E
:103ED000401C0028F8D070476800002030B5420927
:103EE00000F01F030121C3F11F04A140034C54F84B
:103EF00022400C43014D45F8224030BD68000020AF
:103F000030B5420900F01F030121C3F11F04A14095
:103F1000034C54F822408C43014D45F8224030BDFB
:103F20006800002009A1C1610021416108490968B8
:103F300011B90021816105E00549096881610449E1
:103F400009684861024908607047000020000000CD
:103F5000980000200021034A1160034A118001806B
:103F600070470000980000209C0000202DE9F04FD1
:103F700085B007468A4693461C460020029000BF43
:103F800000BFFCF733F9029000BFFCF7EFFB00BF66
:103F900007F108063089F0B904F0100010B94FF0AD
:103FA000000801E04FF01008DDE90E0143465A46D3
:103FB000CDE90001514607F12000FFF7D7FC00BF13
:103FC000FCF7EEFB00BF0298FCF714F900BF00BF3E
:103FD00005B0BDE8F08F04F4007008B1358900E049
:103FE0000125D6F8009011E0D9F808000390D9F81F
:103FF000040004900E985B465246009038460399A0
:10400000FFF7CAFEDDF81090681E85B2002DEBD1D7
:1040100000BFFCF7C5FB00BF0298FCF7EBF800BF40
:1040200000BF04F4004008B9FEF79AFA00210F9887
:10403000018000BFCCE7000000210AE001EB410253
:10404000054B03EB820000220281026042604A1CA1
:10405000D1B22029F2D370470C62002010B504467B
:1040600094F83700FFF73AFF94F8370005490978CC
:10407000884203D1204600F027F802E0204600F0F5
:1040800003F810BD9200002010B590F8373003EB14
:1040900043030C4C04EB83010B893BB901230B81D7
:1040A0000023C36003610860486009E00B895B1C62
:1040B0000B810B68C360002303610A68106108600C
:1040C00010BD00000C62002010B590F8373003EBF3
:1040D00043030B4C04EB83010B893BB901230B8198
:1040E0000023C36003610860486008E00B895B1C23
:1040F0000B810023C3604A680261D060486010BD34
:104100000C62002010B501460C8924B1012C03D0AB
:10411000022C0CD101E000BF14E008684A6802617B
:104120000024C4601461D0600A6048600AE0086836
:104130004A68C36800241C61C4600261D0600B60DF
:10414000486000BF00BF10BD2DE9F041054695F85D
:10415000370000EB4000124901EB80042F69EE6844
:1041600087B946B9002020812060606095F837004B
:10417000FFF7C6FE0EE02089401E2081002030613E
:10418000266007E02089401E2081FE600EB967602E
:1041900000E0376100202861E860BDE8F0810000A0
:1041A0000C62002070B505460026354800780128CD
:1041B00000D070BD00BF00BFFCF718F8064600BF76
:1041C000FCF7D4FA00BF2C684CB900BFFCF7E8FA42
:1041D00000BF3046FCF70EF800BF00BFE9E72948F2
:1041E000844209D100BFFCF7DBFA00BF3046FCF780
:1041F00001F800BF00BFDCE7E06D10B1E06D401ECC
:10420000E065E06D48B100BFFCF7CAFA00BF304678
:10421000FBF7F0FF00BF00BFCBE72889022809DACF
:1042200000BFFCF7BDFA00BF3046FBF7E3FF00BF5D
:1042300000BFBEE714480078002809DD00BFFCF786
:10424000AFFA00BF3046FBF7D5FF00BF00BFB0E7B5
:104250002846FFF757FF2C68A06D18B90B48006877
:10426000E06501E0A06DE06500BFFCF799FA00BFD2
:104270003046FBF7BFFF00BF00BF00BF99E700005B
:10428000A4000020386100209E000020A000002033
:1042900009A1C161002141610849096811B90021E2
:1042A000816105E00549096881610449096848613F
:1042B000024908607047000020000000A8000020AC
:1042C0000021034A1160034A1180018070470000F9
:1042D000A8000020AC0000202DE9FF5F04468846BE
:1042E00091461D460020019000BF00BFFBF77EFFF6
:1042F000019000BFFCF73AFA00BF04F108073889C3
:10430000002857D10420012804D0022816D0042800
:104310003AD127E0206AFF280FD100BFFCF740FA0E
:1043200000BF0198FBF766FF00BF00BF46F6C5500F
:104330002880002004B0BDE8F09F26E04FF6FF7112
:10434000206A88420DD100BFFCF72AFA00BF01980D
:10435000FBF750FF00BF00BF46F6C5502880002085
:10436000E8E712E0206A401C68B900BFFCF718FAC1
:1043700000BF0198FBF73EFF00BF00BF46F6C550E7
:1043800028800020D6E700E000BF00BF206A401C64
:104390002062D4F820A0C4F8249000BFFCF700FAF3
:1043A00000BF0198FBF726FF00BF00BF0020288058
:1043B0005046BFE708F4007008B13E8900E00126CE
:1043C000D7F800B011E0DBF808000290DBF8040039
:1043D000039000231A46CDF8009020460299FFF77B
:1043E000DBFCDDF80CB0701E86B2002EEBD1D4F8E9
:1043F00020A000BFFCF7D4F900BF0198FBF7FAFE3C
:1044000000BF00BF08F4004008B9FEF7A9F800207B
:10441000288050468EE7000086B00020009006E01D
:10442000B6490968480001AA0021FEF76BFFB448AD
:1044300000780128F4D101A8FEF7A4FA0027B148BA
:104440000068AE490968884205D9AE480068AB49A2
:104450000968B0FBF1F727B9AA4800680A21B0FB48
:10446000F1F749E1FCF748FA8246FCF769F9A649F9
:10447000086000BF00BFFBF7B9FE009000BFFCF76B
:1044800075F900BFA1480068A149086000209F4954
:10449000086000BFFCF784F900BF0098FBF7AAFE94
:1044A00000BF00BF9B48006899490968884248D905
:1044B000984800689849884205D242F210700390EB
:1044C0000120029023E0934800689449884205D275
:1044D0004FF47A7003900A20029018E08D4800682B
:1044E0008F49884203D26420039002900FE08948EC
:1044F00000688C49884205D20A2003904FF47A70F4
:10450000029004E00120039042F210700290814872
:1045100001680298B1FBF0F97D49039809684843A6
:10452000B0FBF9F042F21071081A7F4908807F4809
:1045300000880988884207DA7B4800887B49088020
:1045400002E0002078490880FEF740FB002500BF0C
:1045500000BFFBF74BFE009000BFFCF707F900BF60
:104560007348046800BFFCF71BF900BF0098FBF715
:1045700041FE00BF00BF2EE000BF00BFFBF736FECC
:10458000009000BFFCF7F2F800BF54F8A00F606085
:10459000002044F8A00900BFFCF702F900BF009812
:1045A000FBF728FE00BF00BFD4F8A400054400BFFD
:1045B00000BFFBF71BFE009000BFFCF7D7F800BF61
:1045C000D4F8C04000BFFCF7EBF800BF0098FBF741
:1045D00011FE00BF00BF002CCED145B34E4885422E
:1045E00005D242F2107005904FF0010B1BE04B48D2
:1045F000854205D24FF47A7005904FF00A0B12E015
:104600004748854203D26420059083460BE0454825
:10461000854204D20A2005904FF47A7B03E0012002
:10462000059042F2107BB5FBFBF0049003E0002004
:1046300005900120049000BF00BFFBF7D7FD00905C
:1046400000BFFCF793F800BF3948046800BFFCF7CF
:10465000A7F800BF0098FBF7CDFD00BF00BF2FE01B
:10466000D4F8A400059948430499B0FBF1F086B250
:1046700042F21070864200D90646A4F89060B4F861
:104680009200B04201DAA4F8926001AB04F1B002EA
:10469000111D2046FEF72EFD00BF00BFFBF7A6FD53
:1046A000009000BFFCF762F800BFD4F8C04000BF24
:1046B000FCF776F800BF0098FBF79CFD00BF00BF39
:1046C000002CCDD11B480078012805D100201949C4
:1046D000087001A8FEF756F9FCF70EF9A0EB0A08DE
:1046E00015480068404502D21348C0F8008001AA6E
:1046F00000213846FEF706FEB4E6000014FA000872
:10470000C00000202CFA000874000020B400002033
:10471000BC000020B8000020801A060000093D00FF
:10472000005A62020084D717B0000020B2000020B7
:10473000CC000020AE000020C400002010B58AB0DC
:10474000044600201F4908601F4908601F4908608F
:104750001F4908701F4908701F48006820B946F6B5
:104760002B6020800AB010BD1C4800681C490968F5
:10477000884203D246F62C602080F3E7194800787F
:104780001F2803D346F62A602080EBE70320002190
:104790000591CDE907040691084610490968124AB7
:1047A00012680D4B1B68CDE90132CDE903100D48AD
:1047B000007800230D4A0EA100901248FEF708FA77
:1047C00000BFCFE7B4000020BC000020B8000020EC
:1047D000C0000020AE00002018FA000820FA0008EF
:1047E00028FA000810FA00081CFA0008194400080A
:1047F00075432F4F532D49494920537461742054F8
:1048000061736B008C63002070B504460D4645B1A2
:104810002A462146064800F061FB032084F8360052
:1048200002E0022084F836002046FFF78DFC70BDC0
:10483000E40000202DE9F04104460D4600BF0026AB
:1048400094F8377094F8360008285FD2DFE800F05B
:1048500004191E1F1A1B20212046FFF775FC84F83F
:10486000375094F83700FFF739FB2C480068844232
:1048700003D12046FFF708FC02E02046FFF724FCA6
:1048800046E000BF00BF84F8375041E000BF00BFE2
:1048900000BF84F8375094F83400082831D2DFE89C
:1048A00000F0300431050B06073200BF00BF00BF27
:1048B0002046FFF7E1F927E02046FFF7DDF9206BFE
:1048C000C068466AAF4205DD96F83700A84217DC9B
:1048D000002615E096F83700B84211D13046FFF7B0
:1048E00013F9054696F83800A84202DA96F838001F
:1048F00000E02846054696F83700A84200D1002679
:1049000002E000BF00BF00BF00BF01E0BDE8F081D2
:1049100000BF3446002C92D100BFF7E70C01002005
:104920000021C0F8BC100949096819B90021C0F874
:10493000C01007E005490968C0F8C01003490968BC
:10494000C1F8BC000149086070470000CC0000209D
:10495000D0F8BC20D0F8C0104AB90D4B196011B185
:104960000023C1F8BC300023C0F8C0300FE029B9E3
:104970000023C2F8C030C0F8BC3008E0C2F8C01054
:10498000C1F8BC200023C0F8C030C0F8BC3070476C
:10499000CC0000200021044A1160044A1180044A1E
:1049A0001160018070470000CC000020D000002082
:1049B000C800002070B5044600202060A060606040
:1049C000E06020616061A061E0612AA020620020B7
:1049D0006062A062E0622063A4F84600A0642066E2
:1049E000A4F86400002104F16800FEF7B7FF00207E
:1049F00044F8780F6060E060A0822061783C002578
:104A000006E0002104F1800040F82510681CC5B2C2
:104A1000002DF6D000203434A0616067A067E0600C
:104A200084F85A00C4F88000E0672082E0612062C8
:104A30006062A062A4F85C00A4F85E002066606674
:104A4000FBF75AFF0646A6660020E066C4F884001D
:104A500020706070A0702020E07020710020A060A5
:104A6000C4F88800C4F88C0004A0C4F89000343C5A
:104A700070BD00003F5461736B0000002000000017
:104A800070B504460D46002600BF00BFFBF7AEFB25
:104A9000064600BFFBF76AFE00BF0020288094F89E
:104AA0003600082868D2DFE800F004050607142B5A
:104AB0003F5300BF00BF00BF00BFFBF771FE00BF48
:104AC0003046FBF797FB00BF00BF47F2531028802A
:104AD0005FE014F88E0F401E207014F88E0928B97C
:104AE000002084F836002046FFF7B8FA00BFFBF735
:104AF00057FE00BF3046FBF77DFB00BF00BF48E01C
:104B000014F88E0F401E207014F88E0910B9012081
:104B100084F8360000BFFBF743FE00BF3046FBF7CA
:104B200069FB00BF00BF34E014F88E0F401E2070F8
:104B300014F88E0910B9022084F8360000BFFBF784
:104B40002FFE00BF3046FBF755FB00BF00BF20E043
:104B500014F88E0F401E207014F88E0910B903202F
:104B600084F8360000BFFBF71BFE00BF3046FBF7A2
:104B700041FB00BF00BF0CE000BFFBF711FE00BF10
:104B80003046FBF737FB00BF00BF46F62D6028809C
:104B900070BD00BFFDF7E4FC00BFF9E708B50448AD
:104BA0000068FEF7AFF969460020FEF7C1F808BDBE
:104BB0000C0100202DE9F8430446884617461D469F
:104BC0004FF0000900BF00BFFBF710FB814600BF9C
:104BD000FBF7CCFD00BF0CB971480468A764002046
:104BE000288094F83600082878D2DFE800F0040521
:104BF000585906075A5B00BF00BF00BF04200128B8
:104C000004D0022815D0042839D126E0E06CFF2812
:104C10000ED100BFFBF7C4FD00BF4846FBF7EAFA20
:104C200000BF00BF46F6C55028800020BDE8F883CD
:104C300026E04FF6FF71E06C88420DD100BFFBF714
:104C4000AFFD00BF4846FBF7D5FA00BF00BF46F6F0
:104C5000C55028800020E9E712E0E06C401C68B9EC
:104C600000BFFBF79DFD00BF4846FBF7C3FA00BF3E
:104C700000BF46F6C55028800020D7E700E000BFFF
:104C800000BFE06C401CE064E66C00BFFBF788FDF1
:104C900000BF4846FBF7AEFA00BF00BF7DE000BF93
:104CA00000BF00BF94F83400072818D100231A462B
:104CB000214618460097FFF76FF8E66C00BFFBF738
:104CC0006FFD00BF4846FBF795FA00BF00BF08F430
:104CD0000040002852D1FDF743FC4FE04FE0042094
:104CE000012804D0022814D0042838D125E0E06C33
:104CF000FF280DD100BFFBF753FD00BF4846FBF76F
:104D000079FA00BF00BF46F6C550288000208DE725
:104D100026E04FF6FF71E06C88420DD100BFFBF733
:104D20003FFD00BF4846FBF765FA00BF00BF46F6EF
:104D3000C5502880002079E712E0E06C401C68B97B
:104D400000BFFBF72DFD00BF4846FBF753FA00BF3D
:104D500000BF46F6C5502880002067E700E000BF8E
:104D600000BFE06C401CE064E66C00BFFBF718FD80
:104D700000BF4846FBF73EFA00BF00BF0DE000BF92
:104D8000FBF70EFD00BF4846FBF734FA00BF00BF3B
:104D900046F62D602880002600BF00BF304645E75C
:104DA0000C01002070B504460D46002600BF00BF70
:104DB000FBF71CFA064600BFFBF7D8FC00BF0CB996
:104DC0004448046843480068844210D1424800784F
:104DD00000280CDD00BFFBF7E3FC00BF3046FBF70B
:104DE00009FA00BF00BF46F66350288070BD00205E
:104DF000288094F8360008285AD2DFE800F004171B
:104E000027374748494A042084F83600012084F8AF
:104E10008E002046FFF798F900BFFBF7C1FC00BFEA
:104E20003046FBF7E7F900BF00BF4EE0052084F8ED
:104E30003600012084F88E0000BFFBF7B1FC00BFF4
:104E40003046FBF7D7F900BF00BF3EE0062084F8EC
:104E50003600012084F88E0000BFFBF7A1FC00BFE4
:104E60003046FBF7C7F900BF00BF2EE0072084F8EB
:104E70003600012084F88E0000BFFBF791FC00BFD4
:104E80003046FBF7B7F900BF00BF1EE000BF00BF10
:104E900000BF94F88E00401C84F88E0000BFFBF722
:104EA0007FFC00BF3046FBF7A5F900BF00BF0CE058
:104EB00000BFFBF775FC00BF3046FBF79BF900BF56
:104EC00000BF46F62D60288090E700BFFDF748FB45
:104ED00000BF8BE70C0100209E00002070B5154636
:104EE000066846B90D6500264E618E61C861016095
:104EF0000126868033E0046802682B4624E0166DA4
:104F00009E421DD396696EB90B6500268E614A617B
:104F1000C861166DF61A1665916101608688761C67
:104F200086800CE094690B658C614A61C861166DDE
:104F3000F61A1665916161618688761C868070BD5F
:104F4000166D9B1B14465269002AD8D10B658C61E3
:104F500000264E61C86161618688761C868000BF2C
:104F6000EDE700002DE9F04104460D4690461F464E
:104F7000B8F1040F0ED1284800682E1A16F5803FAC
:104F800001D8002E3CD10020206547F27E203880D9
:104F9000BDE8F081B8F1080F29D11F49606D09689B
:104FA000081AA84205D92E461B48006828446065A7
:104FB00026E01949606D0968081A2E1A16F5803F17
:104FC00000D886B91449606D0968081AB0FBF5F07D
:104FD00005FB0050616D084460650020206547F2C4
:104FE0007E203880D4E7606D2844606508E00DB10C
:104FF0002E4605E00020206547F27E203880C7E776
:10500000012084F83600324621460448FFF766FF47
:105010000020388000BFBBE7D4000020DC00002067
:1050200030B5C26983694169ABB929B900241460FC
:1050300094800465C4611EE000248C610C6D056DD4
:105040002C440C6511609488641E94800024446193
:105050000465C4610FE0596121B18B610C6D056D70
:105060002C440C65002484619488641E9480002480
:1050700044610465C46130BD2DE9F0474FF000097B
:1050800000BF00BFFBF7B2F8814600BFFBF76EFB25
:1050900000BFFBF731FC064600271E4D2C683CB3D1
:1050A000206D401E20651FE0781C87B294F8360002
:1050B000012806D1002084F836002046FEF7CEFFF6
:1050C00006E094F83600052802D1042084F8360062
:1050D000606928602C6814B90020A88007E0A888BF
:1050E000401EA8800020A061206D0028DCD000BFF9
:1050F000EF80FBF701FCA0EB060800BFFBF750FBBD
:1051000000BF4846FBF776F800BF00BF4046BDE849
:10511000F0870000DC0000202DE9F05F4FF0000B6D
:1051200000BF00BFFBF762F8834600BFFBF71EFB22
:1051300000BFFBF7E1FB07464FF000083C4D2C6831
:10514000002C63D0206D401E20655BE008F101005B
:105150001FFA80F8002694F83400042802D1206B4E
:10516000C068466A00202066A4F86400FBF7C4FB10
:10517000A0642046FEF7D5FD94F83600032806D13A
:105180002046FEF76BFF002084F8360006E094F816
:105190003600072802D1042084F83600032084F862
:1051A0003500002084F8340006B396F8370096F8EE
:1051B000381088421AD096F8370094F83710884291
:1051C00014D13046FEF7A0FC814696F838004845D9
:1051D00002DA96F8380000E04846814696F8370033
:1051E000484503D049463046FFF724FB60692860F4
:1051F0002C6814B90020A88007E0A888401EA88069
:105200000020A061206D0028A0D000BFA5F8068076
:10521000FBF772FBA0EB070A00BFFBF7C1FA00BF68
:105220005846FAF7E7FF00BF00BF5046BDE8F09FC1
:10523000E400002008B500272CE06B460022114650
:105240001046FDF761FEBDF8000018BB00BF00BFAF
:10525000FAF7CCFF074600BFFBF788FA00BF0E48FD
:105260000068401C0C49086000BFFBF799FA00BFBA
:105270003846FAF7BFFF00BF00BFFFF7FDFE064646
:10528000FFF74AFF0546741904480068A04201D29E
:1052900002480460D1E70000D4000020D8000020BC
:1052A00010B58AB0044600202049086020490860F3
:1052B000204908601E498880C8801E498880C880AF
:1052C0001D48006820B947F2122020800AB010BDA6
:1052D0001A4800681A490968884203D247F2132025
:1052E0002080F3E7174800781F2803D347F21120E6
:1052F0002080EBE70B2000210591CDE90704069102
:1053000008460E490A68104909680B4B1B68CDE92D
:105310000131CDE903200B48007800230B4A0CA192
:1053200000901048FDF754FC00BFCFE7D4000020E8
:10533000DC000020E400002034FA00083CFA0008F9
:1053400028FA000830FA000838FA00083552000838
:1053500075432F4F532D494949205469636B20549D
:1053600061736B005464002010B58AB004460020BD
:105370002F4908602F4908602F4908802F4800688E
:1053800040B12F4800682D490968B0FBF1F02D4964
:10539000086006E02A4800680A21B0FBF1F02949BC
:1053A00008602848006828490860002027490860EC
:1053B00027490860224627A12A48FCF7C1FD20881A
:1053C00008B10AB010BD2848006818B947F2473044
:1053D0002080F6E72548006825490968884203D2FD
:1053E00047F248302080ECE7224800781F2803D39A
:1053F00047F246302080E4E70B20002105910A4661
:10540000CDE907040691194800681B490968164B45
:105410001B68CDE90131CDE903021648007800236D
:10542000164A17A100901C48FDF7D2FB00BFC8E741
:10543000EC000020F4000020F000002048FA0008F2
:105440002CFA0008040100200801002000010020BF
:10545000FC0000204F5320546D72204D7574657808
:10546000000000001C6500204CFA000854FA0008F7
:1054700028FA000844FA000850FA0008B554000859
:1054800075432F4F532D4949492054696D6572204A
:105490005461736B000000004C6500200EB502A83B
:1054A00001AB0022114600900148FCF77FFD0EBDC4
:1054B0001C6500201CB53FE001AB6A460021084690
:1054C000FDF722FDFFF7EAFFFBF716FA06461B4839
:1054D0000068401C19490860194804681FE001A8C9
:1054E000FDF790F8D4F81080A069401EA061A06973
:1054F00080B9A08C022802D1206AA06105E0204674
:1055000000F022F8032084F82600A56815B1204693
:10551000E168A847444601A8FDF7A6F800BF002CA3
:10552000DDD1FBF7E9F9871B06480068B84201D2D4
:105530000448076000F02AF8BEE7000000010020E0
:10554000F4000020FC00002010B50E4B1B688342C5
:1055500006D101690B4B196039B100234B6104E09E
:10556000416902690A6102B15161012380F8263064
:10557000002303614361044B1B885B1E024C2380A4
:1055800010BD0000F4000020F000002008B56A46BD
:1055900000210248FCF700FE08BD00001C65002049
:1055A00029B1064A12680243044B1A6004E0034A18
:1055B00012688243014B1A60704700003038024085
:1055C00029B1064A12680243044B1A6004E0034AF8
:1055D00012688243014B1A60704700001038024085
:1055E00029B1064A12680243044B1A6004E0034AD8
:1055F00012688243014B1A60704700004438024031
:10560000F0B5002100220024022500260223324F9B
:105610003F6807F00C0121B1042905D0082937D1D2
:1056200005E02E4F076036E02D4F076033E02A4F2C
:105630003F1F3F68C7F38056274F3F1F3F6807F063
:105640003F036EB1264FB7FBF3F7DFF88CC0ACF128
:10565000040CDCF800C0CCF3881C07FB0CF40CE055
:105660001E4FB7FBF3F7DFF870C0ACF1040CDCF8A9
:1056700000C0CCF3881C07FB0CF4174F3F1F3F689A
:10568000C7F301477F1C7D00B4FBF5F7076002E01C
:10569000124F076000BF00BF0F4F3F6807F0F001D7
:1056A0000909104F7A5C0768D74047600A4F3F6886
:1056B00007F4E051890A0B4F7A5C4768D74087604E
:1056C000054F3F6807F46041490B064F7A5C476815
:1056D000D740C760F0BD0000083802400024F40045
:1056E00040787D01140000207047000001490860E7
:1056F00070470000DC0027420CB5002001900090AC
:105700004148006840F480303F49086000BF3E488F
:10571000006800F4003000900198401C019000984F
:1057200018B90198B0F5A04FF1D13748006800F4DE
:10573000003010B10120009001E00020009000989E
:10574000012860D130484030006840F080502E4938
:10575000403108602D48006840F440402B49086003
:105760002948083000682849083108600846006860
:1057700040F4004008600846006840F4A05008600B
:105780002348091F0860081F006840F08070091F47
:10579000086000BF1C48006800F000700028F9D0C5
:1057A0001A48006840F480301849086000BF174864
:1057B000406800F480300028F9D01448006840F4B4
:1057C00000301249086000BF1048406800F4003003
:1057D0000028F9D040F205700E4908600A480830E8
:1057E000006820F003000849083108600846006896
:1057F00040F00200086000BF03480830006800F075
:105800000C000828F8D10CBD0038024000700040A0
:10581000195A4007003C024070B504460D46164632
:105820000CB9002070BD0DB90020FBE721462A46C7
:10583000002304E010780870491C521C5B1C21B145
:105840001AB1107808B1B342F4D301B10AB90020FB
:10585000E8E7B34201D2002008702046E2E710B525
:1058600002460B461146002001E0491C401C19B1BC
:105870000C780CB19842F8D310BD000010B5124856
:10588000006840F001001049086000200E4908310E
:1058900008600D4800680D4908400B4908600C4835
:1058A000091D0860081F006820F48020091F086097
:1058B000002005490C310860FFF71EFF4FF0006023
:1058C0000449086010BD000000380240FFFFF6FEEA
:1058D0001030002408ED00E001F40072B2F5007F02
:1058E00000D100BFCA430280704721B1828942F4CF
:1058F0000052828104E082894DF6FF731A40828152
:10590000704702460020B1F5007F00D100BF138828
:105910000B400BB1012000E0002070472DE9FF474C
:1059200005460E460024A14600BFA046B08900B13E
:1059300000BF2C8A24F44054F08804432C82AC89A4
:1059400041F20C608443B08831890843718908436F
:105950000443AC81AC8A24F44074B0890443AC8223
:105960006846FFF74DFE2048854202D01F48854219
:1059700002D1DDF80C9001E0DDF80890A88900F470
:10598000004040B109EBC90000EB09103168490043
:10599000B0FBF1F707E009EBC90000EB0910316833
:1059A0008900B0FBF1F76420B7FBF0F00401200997
:1059B000642101FB1078A88900F4004040B1322036
:1059C00000EBC800B0FBF1F000F00700044308E072
:1059D000322000EB08106421B0FBF1F000F00F0062
:1059E00004432C81BDE8FF870010014000140140F2
:1059F000C1F308028280704700BFFEE70FB4054B79
:105A000010B503A9044A029800F018F810BC5DF81C
:105A100014FB0000D58A0008B801002002E008C885
:105A2000121F08C1002AFAD170477047002001E018
:105A300001C1121F002AFBD1704700002DE9FF4F62
:105A40008BB09A460F460546002606E025280BD067
:105A500052460D9990476D1C761C28780028F5D188
:105A60000FB03046BDE8F08F0024A0460122604907
:105A700000E0044315F8013F203B02FA03F008421E
:105A8000F7D128782E2817D115F8010F44F0040417
:105A90002A280ED06FF02F022878A0F130010929B2
:105AA0000AD808EB880102EB410100EB01086D1CEC
:105AB000F2E757F8048B6D1C287869283ED006DC85
:105AC0000028CDD063280BD0642804D136E0732899
:105AD00010D075284BD052460D999047761C85E022
