:020000040800F2
:10000000C8D70220C1010008F9370008892A000872
:1000100081360008690E0008C9970008000000003A
:1000200000000000000000000000000051920008E5
:10003000E514000800000000C50C0008C1570008C6
:10004000DB010008DB010008DB010008DB01000820
:10005000DB010008DB010008DB010008DB01000810
:10006000DB010008DB010008DB010008DB01000800
:10007000DB010008DB010008711100089D11000878
:10008000DB010008DB010008DB010008DB010008E0
:10009000DB010008DB010008DB010008DB010008D0
:1000A000DB010008DB010008DB010008DB010008C0
:1000B00035950008DB010008DB010008DB010008C2
:1000C000DB010008DB010008DB010008DB010008A0
:1000D000DB01000839960008DB010008DB0100089D
:1000E000DB010008DB010008DB010008DB01000880
:1000F000DB010008DB010008DB010008DB01000870
:10010000DB010008B58B00086D950008DB010008D5
:10011000DB010008DB010008DB010008DB0100084F
:10012000DB010008DB010008DB010008C911000841
:10013000DB010008DB010008DB010008DB0100082F
:10014000DB010008DB010008DB010008DB0100081F
:10015000DB010008DB010008DB010008DB0100080F
:10016000DB010008DB010008DB010008DB010008FF
:10017000DB010008DB010008DB010008DB010008EF
:10018000DB010008DB010008DB010008DB010008DF
:10019000DB010008DB010008DB010008DB010008CF
:1001A000DB010008DB010008DB010008DFF80CD0F0
:1001B00000F0ECFC00480047E5410108C8D70220E8
:1001C0000648804706480047FEE7FEE7FEE7FEE7F1
:1001D000FEE7FEE7FEE7FEE7FEE7FEE7D99400084C
:1001E000AD01000872B6704762B67047EFF3108039
:1001F00072B6704780F31088704730BF704720BFD9
:100200007047B0FA80F0704790FAA0F0B0FA80F032
:10021000704790FAA0F070472DE9F05F0546002086
:1002200092469B4688460646814640241BE0284667
:1002300041464746224600F072FB53465A46C01AD2
:10024000914110D311461846224600F059FB2D1A51
:1002500067EB01084F4622460120002100F050FBC9
:1002600017EB00094E41201EA4F10104DFDC4846D3
:1002700031462A464346BDE8F09F40EA01039B070A
:1002800003D009E008C9121F08C0042AFAD203E00B
:1002900011F8013B00F8013B521EF9D27047D2B26F
:1002A00001E000F8012B491EFBD270470022F6E75F
:1002B00010B513460A4604461946FFF7F0FF2046DC
:1002C00010BD10B5002200E0521C835C8C5CA34280
:1002D00001D1002BF8D1D8B2E1B2401A10BD30B52F
:1002E00004460020034600E05B1C934203D2E05C1E
:1002F000CD5C401BF8D030BD034611F8012B00F84F
:10030000012B002AF9D118467047F0B480EA0102A7
:10031000D40F4200B2EB410F02D20246084611460A
:100320004A0042D0C30DDDB2C1F3C752AD1A202D31
:1003300035DAC1F3160141F4000204B15242C5F1AD
:10034000200602FA06F12A411044B3EBD05F23D015
:10035000C4B1012DA0EBC35009DCF0BC4FF000424A
:1003600002EAC352DBB200F5000000F003BB40001C
:1003700000F1807000EBC350A0F1807040EAD170B2
:10038000490009E0490841EAC071A0EBC35000F5FB
:100390000000400800EBC350F0BC00F0E2BA61423C
:1003A000012202EB4101001BF6E7F0BC704781F02F
:1003B0000041AAE780F00040A7E780EA010210B5FB
:1003C00002F00043400022D04A001FD0010E01EB92
:1003D0001261C0F35600C2F3560240F4000042F42A
:1003E0000002A0FB022000047F39140400D0401C4E
:1003F00050EA124001D44000491EC2B20C0604EB80
:10040000D010401C4008802A02D003E0002010BD1C
:1004100020F00100002900DA0020184310BD30B49C
:1004200080EA010202F0004530F0004221F0004075
:1004300013D090B1C30DD40DC2F31601C0F3160052
:10044000E41A41F4000140F400027D34914201D3EA
:10045000641C00E04900002C02DA30BC0020704728
:100460004FF400000023914201D3891A034340084E
:100470004FEA4101F7D151B1914202D14FF0004111
:1004800005E002D24FF0010101E06FF0010103EB42
:10049000C450284430BC00F064BA2DE9FE4F8046B9
:1004A00081EA0300C00F0C46009021F0004123F0C8
:1004B0000045B8EB0200A94105D2404621469046CE
:1004C0001C460B46024623F00040104347D0270D40
:1004D000C7F30A00C3F30A510290401A0190402862
:1004E0006BDAC3F3130040F4801B0098924620B1EE
:1004F0000023D2EB030A63EB0B0B01985946C0F1C2
:100500004002504600F0FCF906460D46504659465A
:10051000019A00F014FA10EB08006141002487EA08
:10052000115284EAE7731A4340D0009A62B3019AE9
:10053000012A4FEA075215DC001B61EB02014FF064
:10054000004202EA0752CDE90042001C41F5801149
:1005500032462B4600F04BFA03B0BDE8F08F404620
:100560002146F9E7001B61EB0201001C41F58013F5
:1005700000185B412018A2F5001747EB030140EA81
:10058000D570B6196D4111E06D084FEA360645EA9F
:10059000C0754FEA0752001B61EB0201001C41F5D8
:1005A000801149084FEA30000019514132462B466C
:1005B00003B0BDE8F04F00F00BBA009801224000F4
:1005C0000023D0EB020263EBE073009821464FEA70
:1005D000E074B8EB000061EB0401E9E783F000434D
:1005E0005BE781F0004158E72DE9FE4F81EA030403
:1005F00004F0004421F0004100944FF0000B23F080
:10060000004350EA01045ED052EA03045BD0C3F316
:100610000A54C1F30A552C44A4F2F3340194A0FB0C
:100620000254C1F3130141F48011C3F3130343F4E3
:10063000801301FB024400FB034E840A970A44EA3C
:10064000815447EA8357A4FB076802958D0A05FB8E
:1006500007854FEA932C04FB0C542705029D4FEAB3
:10066000065847EA1637B5EB08056EEB070C870E00
:10067000920E47EA811742EA8312A7FB0201B6EB0A
:100680000B0164EB00042B0D43EA0C335E1844EBC2
:100690001C50DA465146E7FB0201C5F313044FEA4A
:1006A0000B3343EA14534FEA0432019C43EA060336
:1006B000A4F10C040294009CCDE900B400F097F979
:1006C00003B0BDE8F08F00200146F9E72DE9F04DB9
:1006D00081EA030404F0004B21F0004514464FF07A
:1006E000000A23F0004150EA050220D054EA01023A
:1006F0001DD0C5F30A570246C5F31303C1F3130017
:10070000C1F30A5640F4801543F48013A7EB0608A2
:10071000101BD64608F2FD3873EB050002D308F132
:10072000010801E092185B41B8F1000F03DA0020E4
:100730000146BDE8F08D00204FF480110646844646
:100740000EE0171B73EB050705D3121B63EB0503C4
:1007500006434CEA010C49084FEA300092185B410D
:1007600050EA0107EDD152EA030012D082EA0400F8
:1007700083EA0501084305D0101BAB4106D20122D4
:10078000002306E000224FF0004302E06FF0010278
:1007900053101AEB06004CEB085110EB0A0041EB2A
:1007A0000B01BDE8F04D00F013B9C10F80EAE07015
:1007B0000844CA079623002100F0DCB896230022E3
:1007C000114600F0D7B80EB5C10F80EAE0700844BA
:1007D000CA07002140F233438DE80E000A460B465B
:1007E00000F005F903B000BD0EB540F233410291AF
:1007F0000021CDE900110A460B4600F0F8F803B0DD
:1008000000BD20F00040C10DC0F3160040F4000010
:100810007F2901DA00207047962903DCC1F1960197
:10082000C840704796398840704770B5C1F30A5286
:1008300001F000450024C1F3130140F2FF3341F4FD
:1008400080119A4201DA002070BD40F233439A428F
:10085000A2F2334203DC524200F061F800E0904023
:100860002C43F1D0404270BDC1F30A5210B5C1F320
:10087000130140F2FF3341F480119A4201DA002063
:1008800010BD40F233439A42A2F2334203DC52429B
:1008900000F045F810BD904010BD00F0004230F06F
:1008A00000400AD0C10D01F56071C0F3160042EAA4
:1008B0000151C208400711437047002001467047AC
:1008C000002801DBC0F10040002901DBC1F100413B
:1008D0008842704730B50B46014600202022012493
:1008E00009E021FA02F59D4205D303FA02F5491BFE
:1008F00004FA02F52844151EA2F10102F1DC30BD14
:10090000202A04DB203A00FA02F1002070479140CF
:10091000C2F1200320FA03F3194390407047202AC4
:1009200004DB203A21FA02F00021704721FA02F399
:10093000D040C2F120029140084319467047202A56
:1009400006DBCB17203A41FA02F043EAE07306E0F7
:1009500041FA02F3D040C2F1200291400843194607
:1009600070470029A8BF7047401C490008BF20F00D
:100970000100704710B4B0FA80FC00FA0CF050EAA5
:10098000010404BF10BC704749B1CCF1200421FA26
:1009900004F411FA0CF118BF012121430843A3EB21
:1009A0000C01CB1D4FEA00614FEA102042BF00202E
:1009B00010BC704700EBC35010440029A4BF10BC0A
:1009C0007047401C490008BF20F0010010BC704770
:1009D00010B5141E73F1000408DA401C41F1000147
:1009E00092185B411A4301D120F0010010BD2DE99E
:1009F000F04D92469B4611B1B1FA81F202E0B0FA95
:100A000080F220329046FFF77BFF04460F4640EA13
:100A10000A0041EA0B0153465A46084313D01146D7
:100A200053EA010019D0C8F140025046FFF777FFA2
:100A300005460E46504659464246FFF761FF0843B9
:100A400005D0012004E020463946BDE8F08D0020A5
:100A5000054346EAE0762C4337430A986305E40AE7
:100A6000A0EB08000022FD0A44EA47540A3002D5F0
:100A700000200146E9E7010510196941DDE9084553
:100A800000196941BDE8F04DA2E72DE9F04D0023C2
:100A90001A461B1A8A4103DB00200146BDE8F08D8F
:100AA000C1F30A52C1F3130141F480154FF0000B5A
:100AB000D10702D100186D41521E0027044640F2B2
:100AC000FF11384601EB620A3E468046024600208E
:100AD0004FF48011FFF723FFC2197141BB1846EB99
:100AE0000100B4EB030C75EB000C04D3E41A65EBC6
:100AF000000517460E46241908F101006D41804695
:100B00003428E3DDF91946EB0600091BA84103D29E
:100B10004FF0FF32134601E0002213461BEB0700A3
:100B200046EB0A51BDE8F04DFFF752BFC1F30A5240
:100B3000C1F3130140F2FF3341F480119A4202DA0B
:100B400000200146704740F233439A42A2F23342FA
:100B500002DC5242FFF7E3BEFFF7D2BE30B5041EFF
:100B600071F1000404DB4FF00044404264EB0101EA
:100B7000141E73F1000405DB1C464FF00043524283
:100B800063EB0403994208BF904230BD064C074D09
:100B900006E0E06840F0010394E80700984710344D
:100BA000AC42F6D3FFF706FBD4F40108F4F40108D5
:100BB00070B521F0004303430CD0C1F30A55002463
:100BC000D5EB040564EB0403D617AD1AB34102DB81
:100BD0000020014670BD201841EB025170BD70B578
:100BE0008C1810F8015B15F0070301D110F8013BD8
:100BF0002A1106D110F8012B03E010F8016B01F85F
:100C0000016B5B1EF9D12B0705D40023521E0DD4B6
:100C100001F8013BFAE710F8013BCB1A921C03E004
:100C200013F8015B01F8015B521EF9D5A142D8D33C
:100C3000002070BD72B64EF62250CEF2000040F297
:100C4000FF01C0F2000101704FF0000080F309883D
:100C500004F01AFC40F2C860C2F20000016881F39F
:100C6000088840F24660C2F2000040F24761C2F2DA
:100C700000010A78027040F2C065C2F2000540F23D
:100C8000C461C2F200010A682A60106880F3098812
:100C9000EFF3148040F0020080F31488BFF36F8FED
:100CA000BDE8F00F0FBCBDE8005006BC62B60847B7
:100CB00018484FF080510160704716484FF080513E
:100CC0000160704772B6EFF3098020E9F00F40F23F
:100CD000C065C2F200052E683060744604F0D4FB93
:100CE00040F24660C2F2000040F24761C2F20001E9
:100CF0000A78027040F2C461C2F200010A682A60F8
:100D000044F0F40E1068B0E8F00F80F3098862B682
:100D10007047000004ED00E00EB500F0A7F800F009
:100D200045F802A803F0D2FE00F00EF909A008F081
:100D3000D7FD12A008F0D4FD12F02CF808E002A8AC
:100D400000210B460122CDE90010084604F05AFCB0
:100D5000F5E700004372656174696E672041707049
:100D60006C69636174696F6E206B65726E656C206F
:100D70006F626A656374730A0D00000043726561F7
:100D800074696E67204170706C69636174696F6E1D
:100D9000205461736B730A0D0000000070471FB58B
:100DA000684607F02BFE019804B010BD10B54FF453
:100DB000A06002F071FD02F077FA02F05BFA00F039
:100DC00093FB0DA008F08CFD00F040F808F0D8F877
:100DD00000F0E2FB4FF47A7012F0D0FA11F07EFAD4
:100DE00004680120A0470CA008F07AFD12F050FA28
:100DF00012F04CFA10BD0000BBF9D3DA75434F5323
:100E00002D494949B5C44C774950CDF8C2E7CDA822
:100E1000D0C5B2E2CAD40A004C414E383732304114
:100E20002042535020494E495420414E4420434FC4
:100E30004D46494755524520535543434553530A60
:100E40000000000010B5FFF7CDF910BD70B5FFF739
:100E5000A6FF044603480068B4FBF0F5284604F0FA
:100E6000CFFC70BDE0ED010800BFFEE710B500F05B
:100E700033F900F003F800F0F3F810BD70B5002668
:100E80000020184908801849088018490860184946
:100E9000086018490860184908601849086000246B
:100EA00000BFFFF7A3F9064600BF00250BE00020B6
:100EB0001049086000F074F800F08CF80D480068E4
:100EC0000444681C85B2002DF1D00C480460002059
:100ED000084908600849086000BF3046FFF78AF9F2
:100EE00000BF70BDE8050020EA050020EC050020E9
:100EF000F0050020F8050020FC050020F405002086
:100F000001460846044A1268904203D9024A126810
:100F1000801A00E000207047F405002070B500251D
:100F200000BFFFF763F9054600BF0648046800BF2D
:100F30002846FFF75FF900BF2046FFF7E1FF0646AE
:100F4000304670BDF805002070B50025FFF7E6FFBC
:100F5000044600BFFFF74AF9054600BF00200449D8
:100F6000086000BF2846FFF745F900BF204670BD66
:100F7000F805002070B5002500BFFFF737F90546DA
:100F800000BF0648046800BF2846FFF733F900BFDA
:100F90002046FFF7B5FF0646304670BDFC05002031
:100FA00010B509480088401C074908800748008898
:100FB00018B900F0BBF80649086004480088401CD6
:100FC0000249088010BD0000E8050020EA05002065
:100FD000EC05002010B50F480088401E0D49088020
:100FE00008460088A0B900F0A1F80B49086008463F
:100FF00000680A490968441A09480068A04201D2F9
:101000000748046007480068A04201D20548046010
:1010100010BD0000EA050020F0050020EC050020CE
:10102000F8050020FC05002010B5002400BF00BF1B
:10103000FFF7DCF8044600BFFFF7B2FF00BF102146
:10104000064802F01FFB00BFFFF7C4FF00BF2046A9
:10105000FFF7D0F800BF00BF10BD0000307D0020BA
:1010600010B5FFF7E1FF10BD2DE9F04105460C4634
:10107000002714B900BF00F02DF81DB90A20208008
:10108000BDE8F0811021284608F017FA0646102E18
:1010900019D200BF00BFFFF7A9F8074600BFFFF74E
:1010A0007FFF00BF10222946094808F0E3F900BF7E
:1010B000FFF790FF00BF3846FFF79CF800BF00BF66
:1010C0000020208002E04FF47A70208000BFD7E734
:1010D000307D002000BFFEE710B500200249086007
:1010E00000F00AF810BD0000E40500200149086086
:1010F00070470000E405002010B5FFF750FE0446DD
:101100000848006840F080700649086000200649E1
:1011100048600846006840F0010008602046FFF77C
:10112000E5FF10BDFCED00E0001000E0014948685B
:1011300070470000001000E070B5002214E00023AA
:1011400008E010F8015B03EB83043026C6EB44048F
:101150002C44E3B204782E2C02D00478002CF0D179
:10116000401C01F8013B521C042AE8DB70BD000062
:1011700010B50749074800F039F9012806D104499C
:10118000044800F03FF804480068804710BD0000A4
:101190000080001858600240FC00002010B507498C
:1011A000074800F023F9012806D10449044800F05B
:1011B00029F804480068804710BD00002080002006
:1011C00070600240F800002010B507F075FF10BDF8
:1011D0000246094B9A4201D2084801E006481038FD
:1011E00001F000531BB1064B0B40C36002E0044BFF
:1011F0000B408360704700001064024000600240B2
:101200007D0F7D0F0246094B9A4201D2084801E04A
:101210000648103801F000531BB1064B0B40C36069
:1012200002E0044B0B4083607047000010640240F2
:10123000006002407D0F7D0F21B1026842F0010283
:10124000026003E0026822F00102026070470000C1
:10125000016821F0010101600021016041608160AD
:10126000C1600161212141614A49884204D13D2187
:10127000484A103A91608CE046491831884205D1BD
:101280004FF47461434A103A916082E04149303131
:10129000884205D14FF474113E4A103A916078E0CB
:1012A0003C494831884205D14FF07461394A103ABF
:1012B00091606EE037496031884204D13649354A41
:1012C000103AD16065E033497831884204D133491E
:1012D000304A103AD1605CE02E499031884204D106
:1012E0002F492C4A103AD16053E02A49A83188424C
:1012F00005D14FF03D51274A103AD16049E02949C4
:10130000884204D13D21274A083A116041E025492D
:101310001831884205D14FF47461224A083A1160AD
:1013200037E020493031884205D14FF474111D4A0D
:10133000083A11602DE01B494831884205D14FF031
:101340007461184A083A116023E0164960318842F6
:1013500004D11149134A121F11601AE01149783162
:10136000884204D10D490F4A121F116011E00D4946
:101370009031884204D10A490A4A121F116008E0DC
:101380000849A831884204D14FF03D51054A121F47
:1013900011607047106002403D000020400F0020A7
:1013A00000003D201064024021B1026842F4802216
:1013B000026003E0026822F480220260704722B1DA
:1013C000036843F40023036003E0036823F400236D
:1013D000036001617047014600200A6802F00102C3
:1013E0000AB1012000E000207047000070B50246FD
:1013F000002000240025124EB24201D2114B01E020
:101400000F4B103B104E0E4036B11E2606EAD1247B
:10141000166806EA040502E0566906F0800501F048
:1014200000560EB15C6800E01C68084E344004EAC7
:10143000010616B10DB1012000E0002070BD0000D2
:1014400010640240006002403C0F3C0F7D0F7D0F96
:1014500010B501F080034BB122B1436943F0800322
:10146000436103E0436923F08003436180290BD08B
:101470002AB1036801F01E042343036004E00368FB
:1014800001F01E04A343036010BD000010B500224C
:101490000268134B1A40CC680B6823434C69234302
:1014A0008C692343CC6923430C6A23434C6A23434E
:1014B0008C6A23434C6B23438C6B23431A43026097
:1014C000426922F00702D1E90B3423431A434261F7
:1014D0000B6943604B6883608B68C36010BD00007C
:1014E0003F801CF07047000000B587B0012108461E
:1014F00007F014FA0121102007F060FA07220A21F0
:10150000234800F08DFF07220921214800F088FFC1
:1015100000208DF81A0001208DF81B0002208DF8A4
:1015200018000002059002208DF8190005A918483E
:1015300000F02EFF02208DF818004002059005A94A
:10154000134800F025FF4FF4E13001900020ADF882
:101550000800ADF80A00ADF80C00ADF810000C2042
:10156000ADF80E0001A90B4808F0C0F801210948A8
:1015700008F07DF84021074808F070F802F03DF9C6
:10158000012240F22551034808F08AF807B000BD57
:10159000000002400010014010B500F0C3F800F058
:1015A000B1FB0121002000F0A3FC00F0040028B1F1
:1015B0000348006840F010000149086010BD0000B9
:1015C0003800002030B10749896941F00201054A1D
:1015D000916105E00349896921F00201014A9161A5
:1015E000704700000090024070B50C461346002181
:1015F000124D286000BF18E000EB41124FF000458B
:10160000156044F2F4555560C1EBC11505EB450575
:1016100004EB850595605D1E8D4204D900EB4115F4
:101620002035D56000E0D060491C9942E4D3044DD8
:10163000E860044D044E356070BD00002C000020B1
:1016400000900240EC3D00203000002021B14268B3
:1016500022F00042426003E0426842F000424260F1
:101660007047000030B10749896941F40051054ACB
:10167000916105E00349896921F40051014A9161B2
:10168000704700000090024030B50C461346002120
:101690000F4D286000BF15E000EB41124FF480159C
:1016A0001560C1EBC11505EB450504EB850595609B
:1016B0005D1E8D4204D900EB41152035D56000E058
:1016C000D060491C9942E7D3024D286130BD00002B
:1016D000280000200090024002680A430260704720
:1016E00010B50121480607F029F900214FF00070DC
:1016F00007F024F910BD000008B50020009008484C
:10170000806940F48010064988610846806900902D
:1017100042F2107009F092FA01490098886108BD00
:10172000009002401CB5012140F2471007F0F6F886
:101730000121880307F042F9012007F08BFD022008
:10174000009003208DF8050001208DF80400002092
:101750008DF806008DF807006946424800F018FE33
:101760000221404800F07FFE4CF2503009F066FA4A
:1017700002213C4800F079FE4CF2503009F05EFA4C
:101780000420009003208DF8050002208DF804004D
:1017900000208DF806008DF807006946324800F0F9
:1017A000F7FD0B220221304800F03AFE02200090A3
:1017B00069462E4800F0ECFD0B2201212B4800F079
:1017C0002FFE022000906946274800F0E1FD0B2221
:1017D0000121254800F024FE80200090694622481F
:1017E00000F0D6FD0B2207211F4800F019FE102043
:1017F000009069461D4800F0CBFD0B2204211B48D8
:1018000000F00EFE202000906946184800F0C0FD50
:101810000B220521154800F003FE4FF400600090F4
:101820006946134800F0B4FD0B221146104800F041
:10183000F7FD4FF40050009069460E4800F0A8FDF7
:101840000B220D210B4800F0EBFD4FF4804000907F
:101850006946084800F09CFD0B220E21054800F067
:10186000DFFD1CBD002002400000024000080240D5
:10187000000402400018024000200449096801F0F9
:10188000010109B1012000E00020704700900240F2
:101890000FB50021019102910391009170E0009930
:1018A000491C00913E490968096801F40071A1B121
:1018B0003B490968096801F4807171B938490968C0
:1018C000384A126811600121364A12689160344921
:1018D0000968C968324A116052E0314909680968EB
:1018E00001F4807191B92E490968096801F4007109
:1018F00061B92C4909688968491C2A4A12689160B3
:1019000027490968C968264A116039E024490968ED
:10191000244A12685160234909688968491C214A90
:10192000126891601F4909688968012904D11C491E
:1019300009681C4A12681160194909680968C1F3ED
:101940000D41091F0191174909688968012905D9C5
:101950001449096809688968029103E01049096817
:10196000896802910F490968096803910C4909685F
:10197000C9680B4A116001A90EC980E80E000FBDAD
:1019800007490968096801F0004111B90099642903
:1019900085D301A90EC980E80E0000BFEFE7000063
:1019A0002C000020300000202DE9F04188B00446D2
:1019B0000F464FF00008002500200790B84E029017
:1019C00001200190B748056925F01C0503A807F020
:1019D00015F8049EB448864205D3B448864202D224
:1019E00045F008051AE0B148864205D3AC48864266
:1019F00002D245F00C0511E0A948864203D3AC4859
:101A0000864200D20AE0AA48864205D3A948864207
:101A100002D245F0040501E045F01005A14805613A
:101A20004FF400420021384600F01CFB10B90020A2
:101A3000019069E0A04809F001F92068002850D021
:101A400000BF0298401C02900121384600F050FA75
:101A500000F0040018B9994902988842F1D39749D7
:101A60000298884202D1002001904DE000200290AF
:101A70004FF480520021384600F0F4FA08B90020F3
:101A8000019000BF0298401C02900121384600F0EE
:101A90002FFA00F0200018B9884902988842F1D343
:101AA00086490298884202D1002001902CE0002053
:101AB00002901F21384600F01BFA804608F0100003
:101AC00018B14FF40060206201E00020206208F0AD
:101AD000040010B10020606115E04FF480406061A7
:101AE00011E0206AC0F3CF006169C1F34F0140EA01
:101AF00001020021384600F0B5FA08B90020019033
:101B00006F4809F09BF800BF019820B94FF40060BE
:101B10002062C0006061634805686A480540D4E9F6
:101B200001010843E16808432169084361690843EA
:101B3000A1690843E1690843216A0843616A0843CF
:101B4000A16A0843E16A0843216B0843616B0843BB
:101B5000054354480560056842F2107009F06EF8BC
:101B600050480560D4E90E010843216C0843616CBC
:101B70000843A16C0843E16C0843216D0843616D83
:101B80000843484948600846456842F2107009F029
:101B900055F8444845604349A06D8860E06DC860D1
:101BA000084685694FF641700540B4F86010606ED4
:101BB00040EA0140A16E0843E16E0843216F0843EB
:101BC000616F0843054337488561856942F21070AB
:101BD00009F034F833488561D4E91E0108433149DE
:101BE000C8610846C56942F2107009F027F82D480F
:101BF000C5613548856935480540D4E92001084369
:101C0000D4F888100843D4F88C100843D4F8901006
:101C10000843D4F894100843D4F898100843D4F833
:101C20009C100843D4F8A01008430543264885615A
:101C3000856942F2107009F001F823488561D4E902
:101C400029010843D4F8AC100843D4F8B010084375
:101C5000D4F8B41040EA8100D4F8B810084340F436
:101C60000000194908600846056842F2107008F043
:101C7000E5FF15480560006840F0800012490860E3
:101C80000846056842F2107008F0D8FF0E4805605B
:101C90000198012802D108B0BDE8F0810020FAE7E0
:101CA0000087930300800240002D3101C00E160210
:101CB00000E1F50580D1F008F0E82600FFFF040000
:101CC000F0D870020F8120FF00900240233FDEF821
:101CD00010B50B794C7943EA0422094B03441A648A
:101CE000CB781B068C7843EA04434C7843EA042300
:101CF0000C7843EA0402024B03445A6410BD00000E
:101D00000080024010B501214FF0606006F006FE31
:101D1000FFF7E6FC00F022F900BFFFF7ADFD012858
:101D2000FBD01E4800F044F901201C490860002047
:101D3000C8614FF4007088620020C86288634864FC
:101D4000C864086548654FF4806048620020C1F8A7
:101D500080004FF00070C1F884000011C1F88C00C1
:101D60000020C1F89400C1F898000420C1F8A00038
:101D7000C005C1F8A4004012C1F8A8008001C1F854
:101D8000AC004012C1F8B0004000C1F8B80000211A
:101D90000248FFF709FE0249086010BDF83D002027
:101DA0003800002038B504460020009034B10C48BB
:101DB000006840F004000A49086005E0084800682F
:101DC00020F004000649086005480068009042F2CF
:101DD000107008F033FF02490098086038BD000019
:101DE0000080024038B504460020009034B10C4811
:101DF000006840F008000A49086005E008480068EB
:101E000020F008000649086005480068009042F28A
:101E1000107008F013FF02490098086038BD0000F8
:101E20000080024070B502460023002500242E48A1
:101E30000068006800F0004008B1002070BD2A482A
:101E4000016840F2F450824208DD92FBF0F392FB0D
:101E5000F0F600FB162010B15B1C00E00123012B03
:101E60000CD1086840F040500860C2F30C00486094
:101E7000086840F000400860C96826E0002422E0BD
:101E8000086820F0405008601CB9086840F0805095
:101E9000086040F2F4504860581EA0420DD1086816
:101EA00040F000500860581EC0EBC01000EB40002E
:101EB000A2EB8005C5F30C004860086840F00040C4
:101EC0000860C968641C9C42DAD30748016007486F
:101ED000406900F0040020B10420044E706100202D
:101EE00070600120AAE70000280000200090024056
:101EF00018B502460B4600210020009015480169E4
:101F000001F01C014FF4784000EAC22001434FF475
:101F1000F86000EA8310014321F0020141F0010161
:101F20000C48016100BF0098401C009009480169FD
:101F300001F0010018B1084C0098A042F3D3064C00
:101F40000098A04201D1002018BD0248406980B22B
:101F5000FAE7000000800240FFFF04000348006829
:101F600040F0010001490860704700000090024005
:101F700010B50120FFF736FF0120FFF713FFFFF731
:101F8000BBFB0120FFF76EFB0120FFF71BFB10BD21
:101F900010B50020FFF766FB0020FFF713FB0020C1
:101FA000FFF700FFFFF7A8FB0020FFF71BFF10BDA6
:101FB00001210160002141608160C16001614FF435
:101FC0008041416100218161C1614FF40061016282
:101FD000002141628162C162016341638163C16327
:101FE000402101642021416400218164C1640165B4
:101FF00041658165C1650166802141660021816678
:10200000C166016741678167C1674FF08061C0F8B1
:1020100080104910C0F884100021C0F888104FF4D7
:102020000011C0F88C100021C0F89010C0F8941076
:10203000C0F89810C0F89C10C0F8A0104FF00071C4
:10204000C0F8A4104912C0F8A8108901C0F8AC105B
:102050004912C0F8B0100021C0F8B410C0F8B81090
:102060007047000038B503460C4600210020009060
:102070001448016901F01C014FF4784000EAC320C4
:1020800001434FF4F86000EA8410014341F002017B
:1020900041F001010B484261016100BF0098401C02
:1020A00000900848016901F0010018B1064D009840
:1020B000A842F3D3044D0098A84201D1002038BDB6
:1020C0000120FCE700800240FFFF04007FB50646C8
:1020D0000020039096F83100C0F3001000285DD076
:1020E00034480068002843D0002003904FF4805209
:1020F00000210846FFF7B6FF00BF0398401C03907D
:1021000001210020FFF7F4FE00F0200018B92A4951
:1021100003988842F1D3002003901F21FFF7E8FEC7
:10212000044604F0100020B14FF400602149086219
:1021300002E000201F49086204F0040018B10020EA
:102140001C49486103E04FF480401A4948611B482C
:102150000568184840691749096A08430543174844
:10216000056042F2107008F069FD144805680560CA
:10217000FFF7FEFE00200290019000900120104920
:1021800008706B4601AA02A90E4812F0EEFE0D4837
:1021900012F073FF00200C4908700AE0FFF7F8FE08
:1021A00005200749087030460CF0FCFB054812F08A
:1021B000F9FE7FBDF83D0020FFFF040000800240D3
:1021C000040000207C0700203C00002010B50246DF
:1021D00000200023102A03D14FF02044636E0FE04B
:1021E000B2F5807F02D10A4C236809E0B2F5805F26
:1021F00003D1074C2034236802E0054CD434236813
:1022000003EA01048C4201D0002000E0012010BD4F
:10221000840000A00021D0E900231A4383685B1EDC
:1022200042EA4312C36842EA4321014A11607047FF
:10223000500100A070B50022002100230024056891
:10224000AD00A5F1C045D5F840216FF30E02D0E9ED
:1022500001563543C66835430669354346693543FB
:1022600086693543C6693543066A3543466A354350
:102270002A43056835B90568AD00A5F1C045C5F824
:10228000402111E03B4D2B686FF30E03D0E9075658
:102290003543466A35432B43364D2B600568AD0008
:1022A000A5F1C045C5F84021056875BB314D08351D
:1022B000066855F8261001F07041856A2D686D1E7C
:1022C000866A7668761E45EA0616856AAD686D1ED2
:1022D00046EA0526856AED686D1E46EA0536856A7A
:1022E0002D8A6D1E46EA0546856AAD8A6D1E46EA50
:1022F0000556856A2D7E6D1E46EA056529431D4DEE
:102300000835066845F8261032E0FFE7194D083514
:10231000066855F8261001F07041856A2D686D1E1B
:10232000866A7668761E45EA0616856AAD686D1E71
:1023300046EA0526856A2D8A6D1E46EA054529432B
:102340000C4D08352C6804F07044856AED686D1EEC
:102350002E03856AAD8A6D1E46EA05552C434FF063
:102360002045C5F84841034D0835066845F8261054
:1023700070BD0000400100A00449096841EA400125
:102380004FF02042C2F8541170470000540100A0E1
:10239000F0B50A4600210023002400BF3DE00125DE
:1023A00005FA01F3156805EA03049C4234D1056877
:1023B0004F000326BE40B543056015794E00B54079
:1023C0000668354305601579012D02D01579022D77
:1023D00016D185684F000326BE40B5438560557908
:1023E0004E00B540866835438560456801268E40BD
:1023F000B5434560456896798E40B6B23543456031
:10240000C5684F000326BE40B543C560D5794E0070
:10241000B540C6683543C560491C1029BFD3F0BD1F
:10242000F0B5002300244D07ED0E02FA05F3CE109F
:1024300000F1200555F826504E07F70E0F26BE4036
:10244000B543CF1000F1200646F82750CE1000F11A
:10245000200555F8265045EA0304CE1000F120056A
:1024600045F82640F0BD4183704701837047F0B5C1
:1024700005460C46A67D2EB9A68A4FF6FF7707EAD9
:10248000860003E0A68A06EB4606B0B2824201DD72
:10249000064600E0164632461046216AA67D052E05
:1024A0004FD2DFE806F04342032D1800032692FBCB
:1024B000F6F6B2B209E04E7803F8016B0E7803F835
:1024C000016B8E7803F8016BC91C161EA2F101077F
:1024D000BAB2F0D135E0032692FBF6F6B2B209E0CB
:1024E0004E7803F8016B8E7803F8016B0E7803F8D1
:1024F000016BC91C161EA2F10107BAB2F0D120E08F
:10250000032692FBF6F6B2B209E00E7803F8016BEF
:102510008E7803F8016B4E7803F8016BC91C161E08
:10252000A2F10107BAB2F0D10BE000BF03E011F84D
:10253000016B03F8016B161EA2F10107BAB2F6D1C6
:1025400000BF00BFF0BD2DE9F04F06468846924619
:1025500016B1B8F1000F02D10020BDE8F08FD8F815
:102560001C1098F8180000F00109B9F1000F06D00E
:102570007088B8F81AE0A0EB0E0087B201E0B8F856
:102580001A70B8F814203079052847D2DFE800F037
:10259000FBCF478B0300308800EB400084B202EB96
:1025A00042001FFA80FB37E07088904202DAB6F8EA
:1025B00002C000E09446A2EB0C00384482B2B9F1AC
:1025C000000F14D13D460BE0487803F8010B8878E2
:1025D00003F8010B087803F8010B2144681C85B24D
:1025E0006545F1DB081BC11C4FF0010913E03D46B6
:1025F0000BE0487803F8010B887803F8010B0878A2
:1026000003F8010B091B681C85B26545F1DB08194D
:10261000C11C4FF000090027002AC5D116E13088FF
:1026200000EB400084B202EB42001FFA80FB37E06F
:102630007088904202DAB6F802C000E09446A2EB3D
:102640000C00384482B2B9F1000F14D13D460BE0C2
:10265000487803F8010B087803F8010B887803F831
:10266000010B2144681C85B26545F1DB081BC11CC8
:102670004FF0010913E03D460BE0487803F8010BE9
:10268000087803F8010B887803F8010B091B681C14
:1026900085B26545F1DB0819C11C4FF00009002720
:1026A000002AC5D1D2E0308800EB400084B202EBB2
:1026B00042001FFA80FB37E07088904202DAB6F8D9
:1026C00002C000E09446ACEB0700101A82B2B9F1E8
:1026D000000F14D13D460BE0087803F8010B887811
:1026E00003F8010B487803F8010B2144681C85B2FC
:1026F0006545F1DB081BC11C4FF0010913E03D46A5
:102700000BE0087803F8010B887803F8010B487890
:1027100003F8010B091B681C85B26545F1DB08193C
:10272000C11C4FF000090027002AC5D18EE0308877
:1027300000EB400084B202EB42001FFA80FB38E05D
:102740007088904202DAB6F802C000E09446ACEB22
:102750000700101A82B2B9F1000F15D13D460BE007
:10276000087803F8010B487803F8010B887803F820
:10277000010B2144681C85B26545F1DB081BC11CB7
:102780004FF0010914E017E03D460BE0087803F82C
:10279000010B487803F8010B887803F8010B091B3B
:1027A000681C85B26545F1DB0819C11C4FF00009B2
:1027B0000027002AC4D149E030884FF6FF7E0EEA98
:1027C0008004704600EA420B3DE07088904202DAD5
:1027D000B6F802C000E09446ACEB0700101A82B2D3
:1027E000B9F1000F17D13D460EE0087803F8010B50
:1027F000487803F8010B887803F8010BC87803F8D0
:10280000010B2144681C85B26545EEDB081B011DE8
:102810004FF0010916E03D460EE0087803F8010B81
:10282000487803F8010B887803F8010BC87803F89F
:10283000010B091B681C85B26545EEDB0819011DFB
:102840004FF000090027002ABFD100BF00BFD345C9
:1028500001DD504681E658467FE62DE9F043044607
:102860000D46B5F81AC0E9690F46104695F816806E
:10287000B8F1000F3ED1B4F800804FF00409C9EB65
:1028800088081FFA88F6B5F814804FF6FF7909EA30
:102890008800824201DD804600E09046404682107A
:1028A00020E011F8018B03F8018B11F8018B03F87C
:1028B000018B11F8018B03F8018B11F8018B03F8E0
:1028C000018BE0460CF101091FFA89FCB4F8029073
:1028D000A9F10109C84504DB4FF0000C391D0F4672
:1028E00000E03144B2F10008A2F101091FFA89F2B7
:1028F000D7D1C7E0B4F8008008EB4808A8F1030876
:102900001FFA88F6B5F8148008EB48081FFA88F01B
:10291000824201DD804600E0904640464FF00308C9
:1029200090FBF8F81FFA88F295F81680B8F1010FBD
:1029300075D0B8F1020F06D0B8F1030F51D0B8F13D
:10294000040F6DD126E01DE091F8018003F8018BA2
:1029500091F8008003F8018B91F8028003F8018B55
:10296000C91CE0460CF101091FFA89FCB4F8029079
:10297000A9F10109C84504DB4FF0000CF91C0F4612
:1029800000E03144B2F10008A2F101091FFA89F216
:10299000DAD176E01DE091F8018003F8018B91F81F
:1029A000028003F8018B91F8008003F8018BC91CA9
:1029B000E0460CF101091FFA89FCB4F80290A9F174
:1029C0000109C84504DB4FF0000CF91C0F4600E07C
:1029D0003144B2F10008A2F101091FFA89F2DAD1FB
:1029E0004FE01FE011F8018B03F8018B91F8018093
:1029F00003F8018B91F8008003F8018B891CE046F5
:102A00000CF101091FFA89FCB4F80290A9F101093F
:102A1000C84506DB4FF0000CF91C0F4602E009E048
:102A20002EE03144B2F10008A2F101091FFA89F247
:102A3000D8D126E01CE011F8018B03F8018B11F8C6
:102A4000018B03F8018B11F8018B03F8018BE04631
:102A50000CF101091FFA89FCB4F80290A9F10109EF
:102A6000C84504DB4FF0000CF91C0F4600E0314470
:102A7000B2F10008A2F101091FFA89F2DBD100E0EE
:102A800000BF00BFBDE8F0830548006800F001000A
:102A900000B100BE03A006F023FF00BFFEE7000068
:102AA000F0ED00E0686172646661756C742121214B
:102AB0000A00000021B1028842F48062028004E032
:102AC00002884FF6FF331A400280704770B5024605
:102AD0000024002500230020958A138B1B0445EA5F
:102AE000030626F07F4404EA01068E4201D101204C
:102AF00000E0002070BD21B1028842F00102028096
:102B000004E002884FF6FE731A400280704700000E
:102B10001CB50121480505F031FF0121022005F017
:102B2000FDFE0121880305F049FF0422062110481B
:102B3000FFF776FC042207210D48FFF771FC4020C7
:102B4000009002208DF804008DF8050001208DF81A
:102B5000060000208DF8070069460548FFF718FCBD
:102B60008020009069460248FFF712FC1CBD00005F
:102B70000004024021B1028842F48072028004E025
:102B800002884FF6FF631A400280704721B1028825
:102B900042F40072028004E002884FF6FF531A40AC
:102BA000028070470CB50246002000230193009379
:102BB00000920B0F019321F07F41019B1BB1009B01
:102BC0001433009303E0090C009B18330093009B1F
:102BD0001B680B400BB1012000E000200CBD000081
:102BE0002DE9FF4704460D460026B1460427DFF8CD
:102BF000CC80A6884FF6C0700640684605F0FEFE01
:102C0000DDF808802E48B8FBF0F01FFA80F946EA9C
:102C10000906A68020884FF6FE7108402080002615
:102C20002849286888420CD828684000B8FBF0F092
:102C300087B2042F00DA04273E4309F10100208403
:102C400027E0E8884BF6FF71884206D1286800EB40
:102C50004000B8FBF0F087B209E0286800EBC00143
:102C600001EB0010B8FBF0F087B247F48047C7F3E0
:102C70000B0008B947F0010747F4004006434FF442
:102C8000967009FB00F04FF47A7190FBF1F0401C54
:102C90002084A683208840F00100208026884FF6FB
:102CA000F5300640A8886989084306432680A8892C
:102CB000298908432081BDE8FF87000000127A00BF
:102CC00040420F00A08601001FB50020ADF80400AF
:102CD0004BF6FF70ADF806000A20ADF808004FF47F
:102CE0008060ADF80A000001ADF80C0007480090C4
:102CF00069460748FFF774FF01210548FFF7FBFE0F
:102D000001210348FFF7D6FE1FBD0000801A060010
:102D10000054004012B141F0010101E001F0FE0158
:102D2000018270470182704721B1828B42F4806238
:102D3000828304E0828B4FF6FF331A408283704710
:102D400030B500220023848B4FF240052C40848351
:102D500002240484828B0C88B4F5007F01D00C8897
:102D600014B94FF4807308E00C88B4F5407F03D0A9
:102D70000C88B4F5807F00D100238C888D892C438A
:102D80004D882C431C4344F400642243828330BDAD
:102D90001CB501214FF4877005F0C0FD02208DF8AD
:102DA00004008DF8050000208DF806008DF807005E
:102DB0004FF48050009069461A48FFF7E9FA08205E
:102DC000009069461848FFF7E3FA0420009069462E
:102DD0001648FFF7DDFA0820009069461448FFF70F
:102DE000D7FA4020009069461048FFF7D1FA052233
:102DF0000C210C48FFF714FB052203210A48FFF7BA
:102E00000FFB062202210948FFF70AFB05220321D6
:102E10000748FFF705FB052206210448FFF700FBE2
:102E20001CBD000000040240000C024000080240EB
:102E3000002002402DE9F04F0025022300244FF02E
:102E4000010900220026002794469046B0F81CA0F5
:102E50004FF2400B0AEA0B0AA0F81CA04FF0020A3E
:102E6000A0F820A0858BD1F808A0BAF1020F01D1FB
:102E700000BF82E0B1F804A0BAF1000F02D14FF018
:102E8000010901E04FF00209DFF834A1DAF800A0EF
:102E90000AF4000ABAF1000F09D0DFF824A1DAF829
:102EA00000A02AF4000ADFF818B1CBF800A0DFF880
:102EB00010A10AF17C0ADAF800A0CAF3881CDFF836
:102EC00000A10AF17C0ADAF800A0CAF30278DFF860
:102ED000F0A0AAF1040ADAF800A00AF03F07DFF830
:102EE000E0A0AAF1040ADAF800A00AF4800ABAF510
:102EF000800F08D1DFF8CCA0BAFBF7FA0AFB0CFA76
:102F0000BAFBF8F607E0DFF8C0A0BAFBF7FA0AFB55
:102F10000CFABAFBF8F6B1F806A0BAF5007F0ED1AC
:102F20004FEA162A0AEB8A0A4FEA4A0AD1F808B091
:102F3000BAFBFBFA0AF1050A1FFA8AF20FE04FEA20
:102F4000491AB6FBFAFA0AEB8A0A4FEA4A0AD1F89A
:102F500008B0BAFBFBFA0AF1050A1FFA8AF24FF031
:102F60000A0AB2FBFAF202F00104A2EB040ACAF365
:102F70004F034FF6FF7A0AEA0424022B01DBFF2BF2
:102F800001DD02230024B1F806A04AEA040A4AEA55
:102F9000030AA0F820A0B1F804A0B1F80CB04AEAE6
:102FA0000B0AB1F802B04AEA0B0AB1F800B04AEADB
:102FB0000B0A4AF4006A4AEA05058583BDE8F08FEA
:102FC0000838024040787D010024F40010B501214A
:102FD0000148FEF731F910BD7060024010B50021C4
:102FE0000148FEF729F910BD7060024010B50021BC
:102FF0000448FEF721F9002102481838FEF71CF9B1
:1030000010BD0000706002402DE9FF4104460D46EE
:1030100016460027B846002005F084FD012005F083
:1030200087FD00BF08E03B2005F05CFD8046B8F15D
:10303000010F00D103E07F1CB7F5FA7FF3D300BF87
:103040000121880305F09AFC0D4806F0A9F84FF419
:103050000070ADF80000ADF80240ADF80450ADF8D6
:10306000060002960020ADF80C0069460448FFF700
:10307000E1FE01210248FFF757FEBDE8FF81000095
:103080000038004070B590B004460E461546012148
:10309000480505F043FC2A48FEF7DAF800BF284847
:1030A000FEF799F90028FAD126492548FEF7AAF833
:1030B0000020009024480190029440200390049541
:1030C000002005904FF4806006904000079080003B
:1030D00008904011099040020A9000200B900C903B
:1030E0000D900E9069461648FEF7D0F90022214651
:1030F0001348FEF764F94FF4002231461048FEF7FA
:103100005EF901210E48FEF74FF9012210210C480B
:10311000FEF79EF9012202210B480C3806F036F822
:103120000F208DF83C0000208DF83D0001208DF827
:103130003E008DF83F000FA800F072FB10B070BD8C
:10314000706002403DF000A00C3800407FB506469C
:103150000C4615464FF40070ADF80000ADF8026063
:10316000ADF80440ADF8060002950020ADF80C0063
:1031700069460448FFF7E4FD01210248FFF7D4FD4A
:103180007FBD00000034004070B590B004460E468C
:1031900015460121480505F0C1FB2B48FEF758F8FC
:1031A00000BF2948FEF717F90028FAD12749264819
:1031B000FEF728F84FF0C060009025480190029477
:1031C00000200390049505904FF480600690400025
:1031D0000790800008904011099000020A9000209A
:1031E0000B900C900D900E9069461748FEF74EF923
:1031F000002221461448FEF7E2F84FF4002231463F
:103200001148FEF7DCF801210F48FEF7CDF8012246
:1032100010210D48FEF71CF9012211460C480C380C
:1032200005F0B4FF0E208DF83C0000208DF83D0025
:1032300002208DF83E0001208DF83F000FA800F01D
:10324000EFFA10B070BD00005860024000F0409FDF
:103250000C34004010B501210148FDF7EDFF10BD11
:103260005860024010B500210148FDF7E5FF10BD90
:10327000586002401CB50121052005F04FFB0120DC
:10328000009000208DF804008DF80700694605487D
:10329000FFF77EF84FF40050009069460148FFF7B1
:1032A00077F81CBD000802401CB50121802005F004
:1032B00035FB4FF48060009001208DF80400002061
:1032C0008DF8060001208DF8070000208DF805001C
:1032D00069461048FFF75CF84FF4006000906946BB
:1032E0000C48FFF755F84FF48050009069460948A4
:1032F000FFF74EF84FF480610648FFF7B6F84FF439
:1033000000610448FFF7B1F84FF480510148FFF71E
:10331000ACF81CBD001C024086B0A6E05348007803
:10332000012802D002287DD112E002204F49087006
:103330004F480BF03DFA00204E4908604EA006F0C1
:10334000CFFA53A006F0CCFA57A006F0C9FA82E0F3
:10335000474840684749086008460068002836D05A
:1033600003204249087042480BF01CFB54A006F0B1
:10337000B7FA5AA006F0B4FA3E480068000E009072
:103380003C4801780068C0F307433A480088C0F31E
:10339000072259A006F0A4FA0020FF231A46194676
:1033A00000905AA006F09CFA01200346A822C021F2
:1033B00000905CA006F094FA4FF480605F490880AA
:1033C00002AA4FF402415E4801F06EFA41E028483B
:1033D000406A407B04283CDD0420244908702448CE
:1033E0000BF0E0FA574805906FF07F400490564884
:1033F000039003AB04AA05A91D4811F0B6FD53A024
:1034000006F06EFA57A006F06BFAB1200123A8224D
:10341000C021009038A006F063FA0020FF231A466E
:10342000194600E016E0009038A006F059FA012095
:103430000346A822C02100903AA006F051FA02AA41
:103440004FF402413E4801F02FFA4FF480603B49AF
:10345000088000E000BF00BF02A80021FA230A464E
:10346000CDE90010084602F0CDF857E7040000202F
:103470007C070020000000200A20202020204C6F24
:103480006F6B696E6720666F72202020200A000033
:1034900020202020204448435020736572766572B6
:1034A000202020200A0000002020202020706C65B1
:1034B00061736520776169742E2E2E200A0000004A
:1034C0000A2020495020616464726573732061731F
:1034D0007369676E6564200A0000000020202020C8
:1034E000627920612044484350207365727665728A
:1034F0002020200A0000000049503A2025642E2593
:10350000642E25642E25640A000000004E45544DAB
:1035100041534B3A2025642E25642E25642E2564C4
:103520000A000000476174657761793A2025642EAE
:1035300025642E25642E25640A0000001A1C024012
:10354000DC630020C0A801B1C0A801010A2020202E
:1035500020444843502074696D656F7574202020A5
:10356000200A0000202053746174696320495020B0
:10357000616464726573732020200A0000B587B00F
:103580000021084619F038FF0020069005900490AD
:1035900019481A49002204ABCDE90021029005AA7E
:1035A00006A9174811F058FC154811F0F3FC15480E
:1035B000006811280ED1124890F8310040F0100038
:1035C0000F4981F83100084611F057FD01200E49DE
:1035D00008700BE00A4811F0E5FC05200A49087064
:1035E0000AA006F07DF90FA006F07AF91349044805
:1035F00011F038FD07B000BDD5D40108D50D010884
:103600007C07002038000020040000200A20204E03
:103610006574776F726B204361626C6520697320FB
:10362000200A0000202020206E6F7420636F6E6ED1
:1036300065637465642020200A000000CD20000826
:1036400010B5012000F002F810BD000070B504466E
:10365000002500BF00BFFCF7C9FD054600BFFDF710
:103660009FFC00BF0548046000BFFDF7B3FC00BF2E
:103670002846FCF7BFFD00BF00BF70BD000600205C
:1036800000BFFEE730B505460C462246002128461D
:1036900000F060F830BD00003EB500200B49086026
:1036A0000B4C02A801218B022246CDE900100949EA
:1036B00009A000F015F8BDF8080042F21071884228
:1036C00003D000BFFDF706FD00BF3EBD040600208D
:1036D000407D0020408100204865617000000000AE
:1036E0002DE9F84F05460E4617461C46DDE90A89C6
:1036F0004FF0000A00BF00BFFCF778FD824600BF14
:10370000FDF74EFC00BF43463A463146284600943A
:1037100000F010F800BFFDF75DFC00BF5046FCF75D
:1037200069FD00BF00BF42F21070A9F80000BDE8BB
:10373000F88F000030B5039C0A60651E15444D608B
:103740008A60034D2D68CD600B61014D296030BD4D
:10375000040600202DE9F04105460B46944600275B
:10376000002402E03F021F43641C042CFAD360468D
:1037700005F00306294646B1344603E001F8013B53
:10378000401E641C08B1042CF8D30A4601E080C234
:10379000001F0428FBD2114602E001F8013B401E45
:1037A0000028FAD1BDE8F08108B50E48007802285B
:1037B0000BD10D48006F00F4002018B100200B4918
:1037C000087002E00120094908700948008840F0AB
:1037D0000800074908806A464FF40071054801F067
:1037E00063F808BD050100200060024006010020CA
:1037F0000C0100207C4B0020704708B54FF4A060FE
:1038000000F04AF825208DF8000001208DF8010015
:103810008DF802008DF80300684600F001F808BD3D
:1038200070B5002100230F22C4781CB3174C246804
:1038300004F4E064C4F5E064C4F30721C1F10404B6
:10384000E3B20A4144789C40E1B2847814402143B9
:103850000C07210E0E4C05786155047804F01F0505
:103860000124AC4005786D11AD0005F1E025C5F8E7
:10387000004109E0047804F01F050124AC40054D27
:103880000678761145F8264070BD00000CED00E08A
:1038900000E400E080E100E002490143024A1160D7
:1038A000704700000000FA050CED00E0704770471B
:1038B00070B5044600F09AF800203E4908703E4971
:1038C00008703E4908703E4908603E4908603E491C
:1038D00008703E4908703E4908703E4908703E48ED
:1038E00000680A21B0FBF1F03C4908603C480068E0
:1038F00058B13C48056845B13948066803E0761E72
:10390000002028602D1D002EF9D1002036490870B6
:1039100002F0D2FF03F0DAF8204602F05FF82088C8
:1039200000B170BD204602F083FC208800B1F8E7AA
:10393000204602F089FC208800B1F2E7204602F020
:1039400001FE208800B1ECE7204602F0FDFF208850
:1039500000B1E6E7204603F027FA208800B1E0E74F
:10396000204603F0EDFD208800B1DAE7204602F0A2
:10397000B7FB208800B1D4E7204602F0C3F92088C5
:1039800000B1CEE7204604F049FE208800B1C8E728
:10399000204603F0A9FC208800B1C2E7204604F0CD
:1039A000A1FE208800B1BCE701F042FFFFF77EFFD7
:1039B00000BFB6E7100600201806002052060020BF
:1039C000C0060020C406002046060020470600204E
:1039D0004806002058060020E0ED010854060020AB
:1039E000B0ED0108ACED010886060020064800682D
:1039F0000649096800EB810005490860084600682F
:103A000020F0070008607047ACED0108B0ED010838
:103A1000C806002008480078012800D070470748F1
:103A20000078FA2800DBF9E704480078401C0349D5
:103A3000087000BFF2E70000180600201006002002
:103A400010B500242D480078012800D010BD00BF1B
:103A5000FCF7CCFB044600BF2948007828B900BF1A
:103A60002046FCF7C7FB00BFF0E725480078401E62
:103A70002349087008460078002805DD00BF20466D
:103A8000FCF7B8FB00BFE1E71E480078002805DD21
:103A900000BF2046FCF7AEFB00BFD7E702F0F8FE00
:103AA000194908700846007800EB4000174951F8A2
:103AB00020001749086008460068164909688842CE
:103AC00005D100BF2046FCF795FB00BFBEE71048BC
:103AD0000068D0F89400401C0D490968C1F89400B2
:103AE0000D480068401C0C490860FDF7E6F800BF6F
:103AF0002046FCF77FFB00BF00BFA7E718060020A9
:103B0000100600205206002047060020A097002043
:103B1000C4060020C00600207C0600202DE9FC5FC2
:103B20000446894615461E46DDF830A00020009068
:103B3000A8462F46701E80B201904FF0000B07E0A0
:103B40005744C8F80070B8460BF101001FFA80FB1B
:103B500001988345F4DB0020C8F8000000BF00BFD7
:103B600000BFFCF743FB009000BFFDF719FA00BF50
:103B70001F480078401C1E49087000BFFDF72AFA54
:103B800000BF0098FCF736FB00BF00BF00BF19481C
:103B90002060C4F808906560E560A6826682A4F89B
:103BA00010A0204602F030FB13480088401C124948
:103BB000088000BF00BF00BFFCF718FB009000BFEB
:103BC000FDF7EEF900BF0A480078401E084908706A
:103BD00000BFFDF7FFF900BF0098FCF70BFB00BF2B
:103BE00000BF00BF00210D980180BDE8FC9F0000D0
:103BF000520600204D454D203C0600202DE9F041A5
:103C000004460D46002700BF00BFFCF7EFFA074649
:103C100000BFFDF7C5F900BFA08A70B900BFFDF76E
:103C2000D9F900BF3846FCF7E5FA00BF00BF45F2FE
:103C3000C26028800020BDE8F081E6683068E0605E
:103C4000A08A401EA08200BFFDF7C4F900BF38461D
:103C5000FCF7D0FA00BF00BF002028803046EAE71A
:103C60002DE9F04104460D461646002700BF00BF6F
:103C700000BFFCF7BBFA074600BFFDF791F900BF94
:103C800020480078401C1F49087000BFFDF7A2F9CA
:103C900000BF3846FCF7AEFA00BF00BF00BF1A48AD
:103CA0002060656000202062606284F82800E06285
:103CB00004F1080002F0F7FC204602F0D3FB1348A1
:103CC0000088401C1149088000BF00BF00BFFCF7FE
:103CD0008DFA074600BFFDF763F900BF0948007879
:103CE000401E0849087000BFFDF774F900BF384650
:103CF000FCF780FA00BF00BF00BF00203080BDE8A5
:103D0000F0810000520600204D5554584406002012
:103D10002DE9F04788B00546884691461C46109E1E
:103D20004FF0000A82492868884205D045F6C45001
:103D3000308008B0BDE8F0870CB10020206000BFE3
:103D400000BFFCF753FA824600BFFDF729F900BF18
:103D500095F82800C8B9774800686862012085F89E
:103D600028000CB1E86A206029467248006802F019
:103D700091FB00BFFDF72EF900BF5046FCF73AFA61
:103D800000BF00BF00203080D3E76A49686A096835
:103D9000884225D195F82800FF280CD100BFFDF7F7
:103DA00019F900BF5046FCF725FA00BF00BF45F2E5
:103DB00084703080BDE795F82800401C85F8280005
:103DC0000CB1E86A206000BFFDF704F900BF50465F
:103DD000FCF710FA00BF00BF45F282703080A8E700
:103DE00009F4004060B100BFFDF7F4F800BF504691
:103DF000FCF700FA00BF00BF46F2B010308098E731
:103E00004D48007800280CDD00BFFDF7E3F800BF47
:103E10005046FCF7EFF900BF00BF46F66350308014
:103E200087E700BF44480078401C4349087000BF42
:103E3000FDF7D0F800BF5046FCF7DCF900BF00BF2B
:103E400000BF6F6A97F837003A49096891F8371050
:103E5000884206DD3748006890F83710384603F08E
:103E6000BFFA434604222946684602F077FB00BFAA
:103E700000BF00BFFCF7BAF9824600BFFDF790F81B
:103E800000BF2D480078401E2B49087000BFFDF789
:103E9000A1F800BF5046FCF7ADF900BF00BF00BF5E
:103EA00000F000FB00BF00BFFCF7A0F9824600BF96
:103EB000FDF776F800BF1F48006890F8350030B174
:103EC00001280CD002281AD0032821D110E01CB1FF
:103ED00018480068806C2060002030801CE01CB115
:103EE00014480068806C206046F2A910308013E00E
:103EF0000CB10020206047F2D92030800CE01CB1CA
:103F00000C480068806C206045F6C250308003E0A9
:103F100046F62E60308000BF00BF00BFFDF75AF8A4
:103F200000BF5046FCF766F900BF00BF00BF00E7C6
:103F30004D555458C0060020520600202DE9F84F78
:103F400004468A4615464FF0000B94492068884283
:103F500004D045F6C4502880BDE8F88F00BF00BFEC
:103F6000FCF744F9834600BFFDF71AF800BF8C49FF
:103F7000606A096888420CD000BFFDF72BF800BFCB
:103F80005846FCF737F900BF00BF45F28170288022
:103F9000E2E700BF83480078401C8249087000BFF8
:103FA000FDF718F800BF5846FCF724F900BF00BF22
:103FB00000BFFDF7BBF880462834C4F804802078A1
:103FC000401E207014F82809002838DD00BF00BF0B
:103FD00000BFFCF70BF9834600BFFCF7E1FF00BF11
:103FE00070480078401E6F49087008460078C0B9D4
:103FF0006D48008800280BDD00BFFCF7EBFF00BF19
:104000005846FCF7F7F800BF00BF02F015FE11E0BC
:1040100000BFFCF7DFFF00BF5846FCF7EBF800BF1E
:1040200008E000BFFCF7D6FF00BF5846FCF7E2F8F7
:1040300000BF00BF00BF45F2837028808CE7214697
:104040005748006802F070FA04F10809B9F808004E
:1040500000283AD1606284F8280000BF00BF00BF8A
:10406000FCF7C4F8834600BFFCF79AFF00BF4D4839
:104070000078401E4B49087008460078C0B94A488D
:10408000008800280BDD00BFFCF7A4FF00BF5846E6
:10409000FCF7B0F800BF00BF02F0CEFD11E000BF9A
:1040A000FCF798FF00BF5846FCF7A4F800BF08E0F3
:1040B00000BFFCF78FFF00BF5846FCF79BF800BF1E
:1040C00000BF00BF0020288046E73548006890F810
:1040D00037003349096891F83810884228D03048B1
:1040E000006802F00BFA06462D48006890F8381078
:1040F000B14204DA2A48006890F8380000E03046FF
:1041000006462748006890F83700B04210DA244885
:10411000006802F063FD2248006880F8376030468E
:1041200002F0D6FB1E48006802F018FD1F4806701A
:10413000D9F8000087686762012084F828002146CA
:10414000384602F0A7F900231A4639462046CDF832
:10415000008002F01BFB00BF00BF00BFFCF746F869
:10416000834600BFFCF71CFF00BF0E480078401ECE
:104170000C49087000BFFCF72DFF00BF5846FCF744
:1041800039F800BF00BF00BF0AF4004008B900F0D2
:1041900089F90020288000BFDEE600004D55545804
:1041A000C0060020520600202406002046060020FB
:1041B0002DE9F04104460D4616461F464FF0000813
:1041C00000BF00BF00BFFCF711F8804600BFFCF73E
:1041D000E7FE00BF1F480078401C1E49087000BF62
:1041E000FCF7F8FE00BF4046FCF704F800BF00BF34
:1041F00000BF194820606560314604F1200002F0DC
:10420000A7F804F1080002F04EFA204602F084FB01
:1042100012480088401C1149088000BF00BF00BF41
:10422000FBF7E4FF804600BFFCF7BAFE00BF094879
:104230000078401E0749087000BFFCF7CBFE00BFA6
:104240004046FBF7D7FF00BF00BF00BF002038800B
:10425000BDE8F0815206002051554555500600201A
:104260002DE9F04F89B00746884691461E46DDE9A4
:1042700012454FF0000B6F493868884206D045F66A
:10428000C4502880002009B0BDE8F08F0CB1002098
:10429000206000BF00BFFBF7A9FF834600BFFCF70B
:1042A0007FFE00BF2B462246314607F1200002F078
:1042B0001BF88246288850B900BFFCF78BFE00BF70
:1042C0005846FBF797FF00BF00BF5046DBE709F4F5
:1042D000004068B100BFFCF77DFE00BF5846FBF709
:1042E00089FF00BF00BF46F2B01028800020CAE757
:1042F0005148007800280DDD00BFFCF76BFE00BFC1
:104300005846FBF777FF00BF00BF46F66350288092
:104310000020B8E700BF48480078401C46490870B4
:1043200000BFFCF757FE00BF5846FBF763FF00BF16
:1043300000BF00BF43460522394601A802F00EF92E
:1043400000BF00BF00BFFBF751FF834600BFFCF773
:1043500027FE00BF38480078401E3749087000BF6C
:10436000FCF738FE00BF5846FBF744FF00BF00BF14
:1043700000BF00F097F800BF00BFFBF737FF834690
:1043800000BFFCF70DFE00BF2C48006890F8350018
:1043900030B1012815D002282AD0032835D11DE0DC
:1043A00026480068D0F860A024480068B0F864008F
:1043B00030801CB121480068806C2060002028807B
:1043C0002BE04FF0000A002030801CB11B48006831
:1043D000806C206046F2A91028801EE04FF0000A91
:1043E0000020308004B1206047F2D920288014E0FA
:1043F0004FF0000A002030801CB110480068806C2B
:10440000206045F6C250288007E04FF0000A0020E7
:10441000308046F62E60288000BF00BF00BFFCF74A
:10442000D9FD00BF5846FBF7E5FE00BF00BF504670
:1044300029E700005155455552060020C0060020CE
:104440002DE9FF4705460F46904699460C9E1349B5
:104450002868884204D045F6C4503080BDE8FF8704
:10446000FCF764FE04460E48007800280BDD0020AF
:1044700043463A462946CDE9019403960090074801
:1044800001F078FCEAE74B46424639462846CDE93A
:10449000004602F065FA00BFE0E7000051554555BF
:1044A0001006002010B5002420480078002800DD08
:1044B00010BD1F480078002800DDF9E700BFFBF7BA
:1044C00095FE044600BF02F0E3F91A490870084659
:1044D000007800EB4000184951F8200017490860A7
:1044E0000846006816490968884205D100BF204681
:1044F000FBF780FE00BFDBE710480068D0F89400AF
:10450000401C0E490968C1F894000E480068401C20
:104510000C490860FCF7CCFB00BF2046FBF76AFEA5
:1045200000BFBFF36F8F00BFC2E70000100600207E
:104530005206002047060020A0970020C406002055
:10454000C00600207C06002070B5044600251548F2
:104550000078012803D045F68960208070BD12489C
:104560000078FA2803DB45F209202080F6E700BF37
:1045700000BFFBF73BFE054600BFFCF711FD00BF87
:1045800009480078401C0849087000BFFCF722FD6C
:1045900000BF2846FBF72EFE00BF00BF0020208092
:1045A00000BFDBE7180600205206002070B5044665
:1045B00000251E480078012803D045F68960208038
:1045C00070BD1B48007818B946F664502080F7E7A4
:1045D00000BF00BFFBF70AFE054600BFFCF7E0FC8A
:1045E00000BF13480078401E114908700846007843
:1045F00000280CDD00BFFCF7EDFC00BF2846FBF7F0
:10460000F9FD00BF00BF46F663502080D8E700BF29
:10461000FCF7E0FC00BF2846FBF7ECFD00BF00BF45
:10462000FFF740FF0020208000BFC9E718060020E8
:10463000520600202DE9F04104460D4616461F465D
:104640004FF0000800BF00BF00BFFBF7CFFD804662
:1046500000BFFCF7A5FC00BF1E480078401C1D49A8
:10466000087000BFFCF7B6FC00BF4046FBF7C2FD78
:1046700000BF00BF00BF18482060266200206062B3
:10468000656004F1080002F00EF8204602F074FBA9
:1046900012480088401C1149088000BF00BF00BFBD
:1046A000FBF7A4FD804600BFFCF77AFC00BF094879
:1046B0000078401E0749087000BFFCF78BFC00BF64
:1046C0004046FBF797FD00BF00BF00BF00203880C9
:1046D000BDE8F0815206002053454D4160060020A0
:1046E0002DE9F04788B00546884691461C46109E45
:1046F0004FF0000A69492868884206D045F6C45040
:104700003080002008B0BDE8F0870CB100202060A8
:1047100000BF00BFFBF76AFD824600BFFCF740FC0C
:1047200000BF286A98B1286A401E28620CB1686AE6
:1047300020602F6A00BFFCF74DFC00BF5046FBF71E
:1047400059FD00BF00BF002030803846DAE709F489
:10475000004070B12F6A00BFFCF73CFC00BF504620
:10476000FBF748FD00BF00BF46F2B010308038466E
:10477000C8E74B48007800280DDD00BFFCF72AFC95
:1047800000BF5046FBF736FD00BF00BF46F6635042
:1047900030800020B6E700BF41480078401C404907
:1047A000087000BFFCF716FC00BF5046FBF722FD67
:1047B00000BF00BF00BF434606222946684601F0FD
:1047C000CDFE00BF00BF00BFFBF710FD824600BF5B
:1047D000FCF7E6FB00BF32480078401E3049087005
:1047E00000BFFCF7F7FB00BF5046FBF703FD00BF1F
:1047F00000BF00BFFFF756FE00BF00BFFBF7F6FC8F
:10480000824600BFFCF7CCFB00BF2648006890F84A
:10481000350030B101280CD002281AD0032821D14C
:1048200010E01CB11F480068806C206000203080C0
:1048300026E01CB11B480068806C206046F2A9107D
:1048400030801DE00CB10020206047F2D92030807C
:1048500016E01CB113480068806C206045F6C25019
:1048600030800DE046F62E60308000BFFCF7B2FBD2
:1048700000BF5046FBF7BEFC00BF00BF002041E771
:1048800000BF2F6A00BFFCF7A5FB00BF5046FBF737
:10489000B1FC00BF00BF384634E7000053454D412E
:1048A00052060020C00600202DE9FF4106460F46B3
:1048B000144614493068884206D045F6C45020801A
:1048C000002004B0BDE8F081FCF730FC05460E483E
:1048D000007800280CDD0020034602463146CDE971
:1048E000017503940090074801F044FA0020E8E7BE
:1048F00023462A463946304602F062FA8046404650
:10490000DFE7000053454D411006002010B5044676
:1049100012480078E8B901F0BBFF11490870084659
:104920000078104908700E48007800EB40000E49EE
:1049300051F820000D490860084600680C490860DD
:10494000012006490870FCF775F943F6992020808C
:1049500002E045F68A60208010BD000018060020A5
:104960004706002046060020A0970020C40600202D
:10497000C00600202DE9F04107464FF0000800BFB7
:1049800000BFFBF733FC804600BFFCF709FB00BF0C
:10499000002044490860444908804449088044494B
:1049A0000860444908604449086044490860444933
:1049B000088100BFFCF70EFB00BF4046FBF71AFC66
:1049C00000BF00BF00BF00BFFBF710FC804600BF68
:1049D000FCF7E6FA00BF3B48046800BFFCF7FAFAB0
:1049E00000BF4046FBF706FC00BF00BF25E000BF4C
:1049F00000BFFBF7FBFB804600BFFCF7D1FA00BF0E
:104A000000207C34E06320602063A061A082E0820B
:104A10006062A062FCF78AFB20627C3C04F16806BD
:104A20000020B081D4F8C04000BFFCF7D3FA00BF2B
:104A30004046FBF7DFFB00BF00BF002CD7D100BF13
:104A400000BFFBF7D3FB804600BFFCF7A9FA00BF0D
:104A50001D48056800BFFCF7BDFA00BF4046FBF7E4
:104A6000C9FB00BF00BF16E000BF00BFFBF7BEFBE5
:104A7000804600BFFCF794FA00BF05F12006002035
:104A8000B081AD6900BFFCF7A5FA00BF4046FBF757
:104A9000B1FB00BF00BF002DE6D100203880BDE88B
:104AA000F08100002C06002026060020660600206B
:104AB000780600208C060020B00600201406002096
:104AC00094970020800600204C060020F8B504468C
:104AD00000266946364800F0A7FCBDF8000018B172
:104AE000BDF800002080F8BD6A460021022000F0D9
:104AF00001FDBDF8000018B1BDF800002080F2E70C
:104B000000BF00BFFBF772FB064600BFFCF748FA88
:104B100000BF00202749086000BFFCF75BFA00BF18
:104B20003046FBF767FB00BF00BF00252248006846
:104B300022490968884205D91F4800681F49096849
:104B4000B0FBF1F525B91C4800680A21B0FBF1F56E
:104B50006A460021284600F0CDFC6946144800F062
:104B60006DFABDF8000018B1BDF800002080BAE76A
:104B700000BF00BFFBF73AFB064600BFFCF710FA88
:104B800000BF00200E4908600A4800680D4908600F
:104B900001200D49087000BFFCF71CFA00BF304629
:104BA000FBF728FB00BF00BF0020208000BF9AE772
:104BB000E09A002068060020E0ED0108C8ED010839
:104BC000780600206C060020740600207047000064
:104BD0002DE9FF4F85B00446DDE9197ADDE912566B
:104BE000002003904DB97848844206D046F27320E5
:104BF000AAF8000009B0BDE8F08F1F2D07D1734857
:104C0000844204D046F27320AAF80000F2E720465E
:104C100002F0A6FC0020AAF8000007F0010080B115
:104C200007F0020068B1B1464FF0000B06E000202B
:104C3000C9F8000009F104090BF1010B159883452F
:104C4000F5D3149806EB800004901598CDE9000781
:104C50003246049BDDE9070100F084FB814607989A
:104C6000A0620898E0620698206284F8375084F8C1
:104C70003850C4F800900498A0601798A065179861
:104C800018B953480068E06501E01798E065189886
:104C90006060666215982064A4F844704FF00008C4
:104CA00008E0002104F1800040F8281008F101001C
:104CB00000F0FF08B8F1000FF3D004F16800169976
:104CC00001F046FB204600F08DF800BF00BF00BF9A
:104CD000FBF78CFA039000BFFCF762F900BF3D4878
:104CE0000078401C3B49087000BFFCF773F900BF17
:104CF0000398FBF77FFA00BF00BF00BF94F83700AE
:104D000001F0E6FD204601F029FF204602F0DEFB1F
:104D100031480088401C304908803048007801281C
:104D200035D000BF00BF00BFFBF760FA039000BFA3
:104D3000FCF736F900BF27480078401E2549087067
:104D400008460078C0B92648008800280BDD00BF5F
:104D5000FCF740F900BF0398FBF74CFA00BF00BF17
:104D600001F06AFF11E000BFFCF734F900BF0398BF
:104D7000FBF740FA00BF08E000BFFCF72BF900BFCB
:104D80000398FBF737FA00BF00BF00BF32E700BF50
:104D900000BF00BFFBF72AFA039000BFFCF700F941
:104DA00000BF0C480078401E0A49087000BFFCF79D
:104DB00011F900BF0398FBF71DFA00BF00BF00BF49
:104DC000FFF770FB00BF15E7CC960020049600208B
:104DD00054060020520600208406002018060020F9
:104DE00024060020704700002DE9F04104460E46DD
:104DF0004FF000088A48844204D147F24C103080BA
:104E0000BDE8F0818748844203D147F24D103080DD
:104E1000F6E79CB900BF00BFFBF7E8F9804600BF8A
:104E2000FCF7BEF800BF8048046800BFFCF7D2F86A
:104E300000BF4046FBF7DEF900BF00BF00BF00BF68
:104E400000BFFBF7D3F9804600BFFCF7A9F800BF0D
:104E500076480078401C7549087000BFFCF7BAF826
:104E600000BF4046FBF7C6F900BF00BF00BF94F883
:104E70003600082860D2DFE800F004090E10080AA6
:104E80000F11204601F0AAFE8FE08EE000BF204601
:104E900003F0C4F989E000BF00BF00BF94F83400FC
:104EA00008283BD2DFE800F0040705080E090A06CF
:104EB00000BF00BF33E000BF00BF00BF204601F0CD
:104EC0002AFC2CE0206BC068456A15F8377F204625
:104ED00001F021FC28786978373D884212D095F896
:104EE000370094F8371088420CD1284601F006FBB1
:104EF000074695F83800B84202DA95F8380000E025
:104F000038460746002084F8340095F83700B84248
:104F100003D03946284602F063FA00E000BF00BF24
:104F200094F83600032803D094F83600072802D1FD
:104F3000204603F073F938E000BF00BF00BFFBF765
:104F400055F9804600BFFCF72BF800BF37480078C2
:104F5000401E3649087008460078C0B934480088B9
:104F600000280BDD00BFFCF735F800BF4046FBF71B
:104F700041F900BF00BF01F05FFE11E000BFFCF788
:104F800029F800BF4046FBF735F900BF08E000BF35
:104F9000FCF720F800BF4046FBF72CF900BF00BF2C
:104FA00000BF46F62D6030802AE700BFE06B10B1ED
:104FB000204601F073FA04F1680001F073F920460D
:104FC00000F03AF8204602F099FA1A480088401E8C
:104FD00018490880204602F0C3FAFF2084F8360002
:104FE00000BF00BF00BFFBF701F9804600BFFBF721
:104FF000D7FF00BF0D480078401E0C49087000BF65
:10500000FBF7E8FF00BF4046FBF7F4F800BF00BF26
:1050100000BF00203080FFF745FA00BFF0E6000037
:1050200004960020CC960020C006002052060020E6
:105030002406002084060020704700007FB5044647
:105040000D46002600BF00BFFBF7D0F8064600BFA4
:10505000FBF7A6FF00BF00BFFBF7BCFF00BF304659
:10506000FBF7C8F800BF00BF0A48007800280BDD36
:10507000002000900190034602462146CDE902053A
:10508000054800F077FE7FBD2946204602F0F2FB7E
:1050900000BFF8E710060020545245537047000047
:1050A0002DE9F0470746884614461D464FF0000993
:1050B0000CB10020206000BF00BFFBF797F88146CD
:1050C00000BFFBF76DFF00BF75480068C06CC0B340
:1050D00073480068C06C401E71490968C864704814
:1050E0000068C66C1CB16E480068806C2060FCF7DC
:1050F0001DF86B490968896C401A69490968C1F84B
:10510000A80067480068D0F8AC0065490968D1F884
:10511000A810884207D262480068D0F8A800604909
:105120000968C1F8AC0000BFFBF754FF00BF484658
:10513000FBF760F800BF00BF002028803046BDE8C4
:10514000F087FFE708F4004068B100BFFBF742FFBB
:1051500000BF4846FBF74EF800BF00BF46F2B01054
:1051600028800020EBE74F48007800280DDD00BFC5
:10517000FBF730FF00BF4846FBF73CF800BF00BF1D
:1051800046F6635028800020D9E700BF45480078E4
:10519000401C4449087000BFFBF71CFF00BF484695
:1051A000FBF728F800BF00BF00BF3B4607220021E5
:1051B000084601F0D3F900BF00BF00BFFBF716F8A7
:1051C000814600BFFBF7ECFE00BF36480078401E6A
:1051D0003449087000BFFBF7FDFE00BF4846FBF7EF
:1051E00009F800BF00BF00BFFFF75CF900BF00BFB8
:1051F000FAF7FCFF814600BFFBF7D2FE00BF28484C
:10520000006890F8350020B1012826D0032834D159
:105210002CE0FCB122480068806C2060FBF786FF20
:105220001F490968896C401A1D490968C1F8A8001E
:105230001B480068D0F8AC0019490968D1F8A810DB
:10524000884207D216480068D0F8A80014490968B7
:10525000C1F8AC000020288013E01CB110480068A1
:10526000806C206046F2A91028800AE00CB1002072
:10527000206047F2D920288003E046F62E6028807F
:1052800000BF00BF06480068C66C00BFFBF7A2FE67
:1052900000BF4846FAF7AEFF00BF00BF30464EE7FA
:1052A000C0060020520600202DE9F04704460D46B6
:1052B00016461F464FF0000A00BF00BFFAF796FFE0
:1052C000824600BFFBF76CFE00BF0CB9244804689F
:1052D000206880B900BFFBF77DFE00BF5046FAF79B
:1052E00089FF00BF00BF00202860306047F25210E5
:1052F0003880BDE8F08794F8440000F0010078B9E8
:1053000000BFFBF767FE00BF5046FAF773FF00BF10
:1053100000BF00202860306047F254103880E8E772
:1053200000BFFBF757FE00BF5046FAF763FF00BF10
:1053300000BF4FF00008D4F8249003E009F10409FD
:1053400008F10108D9F800000028F7D0C5F800805E
:10535000206CA0EB080030600020388000BFC8E758
:10536000C0060020F0B50446DDE9055602EB8500D5
:1053700020F007004FF0807C071F3846C7F800C0B8
:10538000071F38463C60DFF89CC0071F3846C7F847
:1053900000C04FF0123C071F3846C7F800C04FF05E
:1053A000033C071F3846C7F800C04FF0023C071FF8
:1053B0003846C7F800C0071F38463B60071F38460D
:1053C00039604FF0113C071F3846C7F800C04FF056
:1053D000103C071F3846C7F800C04FF0093C071FB4
:1053E0003846C7F800C04FF0083C071F3846C7F8DA
:1053F00000C04FF0073C071F3846C7F800C04FF009
:10540000063C071F3846C7F800C04FF0053C071F91
:105410003846C7F800C04FF0043C071F3846C7F8AD
:1054200000C0F0BDD97900087FB505460C4612488A
:10543000854203D147F25B1020807FBD0F48854233
:1054400003D147F25C102080F7E70D480078002870
:105450000BDD002000900190034602462946CDE96D
:105460000204084800F086FCE7E72146284602F0DF
:1054700075FD00BFE1E7000004960020CC960020F7
:10548000100600205453555370B5FBF74FFE0546E8
:105490001648006816490968884215D01348006804
:1054A000D0F89C00281A11490968C1F898000F48E3
:1054B0000068D0F8A0000D490968D1F89810084498
:1054C0000A490968C1F8A00009480068C0F89C5062
:1054D000FBF73AFD044605480068D0F8B800A04242
:1054E00003D202480068C0F8B84070BDC006002072
:1054F000C40600202DE9F04105460E46144600275B
:105500003E480078002804DD46F663502080BDE860
:10551000F08136B1022E05D0042E0AD0082E09D112
:1055200001E000BF00BF1DB947F27E202080EEE7FA
:1055300004E003E045F625602080E8E700BF00BFF7
:1055400000BF00BFFAF752FE074600BFFBF728FD79
:1055500000BF2A480078401C2849087000BFFBF7AC
:1055600039FD00BF3846FAF745FE00BF00BF00BF57
:105570002346324629462248006802F0F1FD208881
:10558000C8B100BF00BF00BFFAF730FE074600BF3A
:10559000FBF706FD00BF19480078401E1749087048
:1055A00000BFFBF717FD00BF3846FAF723FE00BF28
:1055B00000BF00BFABE71248006801F00FFB00BF5F
:1055C00000BF00BFFAF712FE074600BFFBF7E8FC7A
:1055D00000BF0A480078401E0849087000BFFBF76A
:1055E000F9FC00BF3846FAF705FE00BF00BF00BF58
:1055F000FEF758FF0020208000BF88E752060020F9
:10560000C00600202DE9F84F06460F469046994601
:105610000B9C0020009055480078002804DD46F6D9
:1056200063502080BDE8F88F0A9800F00E0ABAF1A6
:10563000000F09D0BAF1020F07D0BAF1040F12D04F
:10564000BAF1080F10D101E000BF00BFB9F1000F9F
:1056500008D1B8F1000F05D127B91EB947F27E2055
:105660002080DFE704E003E045F625602080D9E7ED
:1056700000BF3F4805684FF4FA70B0FBF5F04844AE
:1056800068434FF47A71B0FBF1F14FF461607043FD
:10569000C7EB071200EB8200404400FB051BBBF187
:1056A000000F5DD000BF00BF00BFFAF79FFD009064
:1056B00000BFFBF775FC00BF2C480078401C2B494D
:1056C000087000BFFBF786FC00BF0098FAF792FD58
:1056D00000BF00BF00BF2346524659462548006818
:1056E00002F03EFD2088C8B100BF00BF00BFFAF73E
:1056F0007DFD009000BFFBF753FC00BF1B48007806
:10570000401E1A49087000BFFBF764FC00BF0098F8
:10571000FAF770FD00BF00BF00BF83E715480068BF
:1057200001F05CFA00BF00BF00BFFAF75FFD009018
:1057300000BFFBF735FC00BF0C480078401E0B494A
:10574000087000BFFBF746FC00BF0098FAF752FD57
:1057500000BF00BF00BFFEF7A5FE0020208002E0D2
:1057600047F27E20208000BF5CE700005206002048
:10577000E0ED0108C006002010B586B000F01EF86C
:10578000FBF7D4FC044605A800210091CDE90114E3
:1057900003900748007800EB4000064A02EB8001C6
:1057A00000231A46044800F0E5FA06B010BD0000D8
:1057B00046060020A09700205449434B7047000044
:1057C00010B5002400BF00BFFAF710FD044600BF6B
:1057D000FBF7E6FB00BF09480078401C074908704A
:1057E00000BFFBF7F7FB00BF2046FAF703FD00BF41
:1057F00000BFFFF7C1FFFEF723F910BD1006002020
:1058000001464A1E4FF0E0235A61084A106820F012
:105810007F4000BF10601A46126942F005021A610B
:105820001A46126942F002021A61704720ED00E048
:10583000244A2549254A264A2649274A2748284AEC
:10584000284A294A294A2A482A482B482B4A2C48C0
:105850002C4A2D482D4A2E482E482F482F48304A92
:10586000304A314A3148324A324A33483348344860
:105870003448354835483648364A374A374A384A30
:105880003848394839483A4A3A4A3B4A3B483C4802
:105890003C483D493D483E4A3E4A3F4A3F4A404ACD
:1058A000404A414A4148424A424A43484348444A9E
:1058B000444A4548454A464A4648474800BF00BF13
:1058C00000BF704714EE01087CEF010815EE0108D7
:1058D00016EE010818EE01081CEE010820EE010882
:1058E0001DEE010848EE010849EE01084AEE0108E4
:1058F0004CEE01084EEE010850EE010852EE010890
:1059000054EE010874EE010876EE010878EE010805
:105910007AEE01087CEE01087EEE010880EE0108B7
:10592000B0EE0108B1EE0108B2EE0108B4EE0108D4
:10593000B6EE0108B7EE0108B8EE0108BAEE0108AC
:10594000BCEE0108BEEE0108C0EE0108C2EE01087F
:10595000C4EE0108F4EE0108F5EE0108F6EE0108C8
:10596000F7EE0108F8EE0108FAEE0108FCEE010876
:1059700024EF010825EF010826EF010827EF0108B1
:1059800028EF01082AEF01082CEF010830EF010889
:1059900031EF010832EF010833EF010834EF01085D
:1059A00035EF010836EF010837EF010838EF01083D
:1059B0003AEF01083BEF01083CEF01083EEF010818
:1059C00040EF010841EF010844EF010874EF0108BE
:1059D00075EF010876EF010878EF01080021034A0E
:1059E0001160034A118001807047000030060020DA
:1059F000340600202DE9F04F85B0044689469246D2
:105A00009B46DDF838800020009000BF00BFFAF709
:105A1000EDFB009000BFFBF7C3FA00BFBAF1000F27
:105A20000AD0BAF1010F0DD0BAF5004F05D06FF4CE
:105A30000040504460B906E000BF206A40EA090017
:105A4000206216E000BF206A20EA0900206210E010
:105A500000BFFBF7BFFA00BF0098FAF7CBFB00BF0F
:105A600000BF45F62560A8F80000002005B0BDE89D
:105A7000F08F00BFC4F824B004F108000190019831
:105A8000008968B900BFFBF7A5FA00BF0098FAF7D4
:105A9000B1FB00BF00BF0020A8F80000206AE5E7C6
:105AA00000BF6A480078401C6849087000BFFBF7D7
:105AB00091FA00BF0098FAF79DFB00BF00BF00BF3E
:105AC00001980768BD6887E07868029095F88C00B7
:105AD00000F00F0003900398012821D002282ED057
